S01700004763634170706C69636174696F6E312E737265635B
S113000086C00000A1C000009FC000009DC0000089
S11300109BC0000099C0000097C0000095C000007C
S11300202CC2000091C000008FC000008DC00000F1
S11300308BC0000089C0000087C0000085C000009C
S11300406DC3000081C000007FC000007DC00000BF
S1130050EDC2000079C0000077C0000075C0000048
S113006073C0000071C000006FC000006DC00000CC
S11300706BC0000069C0000067C0000065C00000DC
S113008063C0000061C000005FC000000800000001
S1130090BE922449123EABAAAA2ABECDCCCC4C3E79
S11300A000000080BEABAAAAAA3E00000000BF0068
S11300B00000803F0000000000084178D3BB438764
S11300C0D1133D190E3CC3BD4282AD2B3E68EC8278
S11300D076BED98FE1A93E4C80EFFFBE01C4FF7FFD
S11300E03F000000000007634236B79BD8A71A39C7
S11300F0685618AEBAAB558C1D3CB7CC5763BD6D72
S1130100EDFD753EF6177231BF000000803F1124EB
S11301101FBECFEFD0E1DEBFCDBF11E0A0E0B1E064
S1130120E6E1F1E100E00BBF02C007900D92A230BE
S1130130B107D9F721E0A2E0B1E001C01D92A233DA
S1130140B207E1F7CBD1E5C75BCF10929B0088E102
S113015080939A0086E080939D001092980087E631
S113016080939900089590919B0095FFFCCF809314
S11301709C00089580919B0088230CF087C0809197
S11301809C0080930301809102018230B1F083309E
S1130190B1F1813009F054C0809103018E3239F4F9
S11301A01092020180910301DEDF80E008958091C6
S11301B0030180538093040143C0809103018E3274
S11301C039F41092020180910301CDDF80E008959B
S11301D0E4E0F1E0818192819C01220F331F880FBA
S11301E0991F880F991F880F991F820F931F2091C1
S11301F00301820F911DC0979283818321C0809156
S113020003018E3239F41092020180910301ABDFB5
S113021081E00895E4E0F1E0838194819C01220F60
S1130220331F880F991F880F991F880F991F820FFA
S1130230931F20910301820F911DC09794838383A0
S113024080910301833231F41092040181E08093A0
S1130250020117C080910301813241F4109206011A
S11302601092050182E0809302010BC0809103018A
S11302708A3239F4109208011092070183E08093C6
S11302800201809103016FDF80E0089580E008950A
S113029095B3907F892B85BB2FEF81EE94E021509D
S11302A080409040E1F700C00000089540E050E035
S11302B021C0209119012223B9F04F5F5F4F209193
S11302C01E0130911F014217530771F42091200140
S11302D030912101820F931F90931D0180931C0183
S11302E09BBD8ABD40E050E08FE891E00197F1F7B3
S11302F000C0000080911C0190911D012091170104
S11303003091180182179307A1F6089580911C017A
S113031090911D019BBD8ABD82E0BADF82E0B8DF07
S113032082E890E0909318018093170120911C01BA
S113033030911D01809117019091180128173907F8
S113034038F08FEF9FEF909321018093200106C036
S113035081E090E09093210180932001A7CF08953C
S113036080911C0190911D019BBD8ABD82E090DFAC
S113037082E08EDF8CE692E090931801809317015F
S113038020911C0130911D01809117019091180159
S11303902817390738F08FEF9FEF9093210180934E
S11303A0200106C081E090E0909321018093200118
S11303B07DCF0895CF93DF93EC0180911C01909140
S11303C01D019BBD8ABD82E063DF82E061DFD093C3
S11303D01801C093170120911C0130911D018091D7
S11303E01701909118012817390738F08FEF9FEF04
S11303F0909321018093200106C081E090E09093C6
S113040021018093200152DFDF91CF91089590E084
S113041090931F0180931E010895CF93DF93EC0105
S113042083E036DF87E893E197BD86BDDBBDCABDB7
S113043089E02EDFDF91CF910895CF93DF93EC0114
S113044083E026DF87E893E197BD86BDDBBDCABDA7
S11304508DE01EDFDF91CF910895CF93DF93EC0100
S113046083E016DF87E893E197BD86BDDBBDCABD97
S113047081E00EDFDF91CF9108951F920F920FB6A6
S11304800F9211240F900FBE0F901F90189583B7F1
S1130490876083BF87B7816087BF12BE089582E8F3
S11304A08FBD8BE18EBD87E893E197BD86BD08952E
S11304B08FEF8ABB11BA87BB84BB1092610012B85C
S11304C0089580E487B987E886B9089585B38F775E
S11304D085BB089585B3806885BB0895E9DFF1DFA6
S11304E0D6DFDDDF32DE80EC89BF80EF8ABF94D2B5
S11304F0F1DFE4E0F1E085E080838FEF9FEF92830A
S1130500818394838383789481E08093190184E1C7
S11305107EDF87E791E04EDFF9DEC1E0C430F9F019
S113052028F4C13049F0C230A9F0F8CFC83051F1F5
S1130530C03109F447C0F2CF80912D0190912E0172
S11305408538934058F383E0A3DEC0DF80E30BDEFD
S1130550CC0FE4CF0FDE882309F3CC0FDFCF87E77E
S113056091E028DFB3DFFCDE10922A01B3DF8FEFC6
S113057097EA21E6815090402040E1F700C0000056
S1130580CC0FCCCF80912A01813029F410922A011A
S1130590BDDECC0FC3CF84E13ADFB8DE97DF109223
S11305A027011092260180E532DFDADE93DF81E055
S11305B090E0909327018093260184E128DFA6DE52
S11305C0CC0FACCF80910401811105C084EF91E080
S11305D024DFC1E0A3CF823029F484EF91E02DDF42
S11305E0C1E09CCF813029F484EF91E036DFC1E093
S11305F095CF83E04DDEC1E091CF80912F019091A2
S113060030018538934018F481E080932A010895DD
S113061080912B0190912C018930924018F0109216
S11306201901089581E08093190108955D9BFECF1F
S11306308CB90895EF92FF920F931F93CF93DF939A
S1130640EC017C01F694E794F694E794F694E7942D
S11306509701A5ECB0E24ED58C01129502950F706E
S113066001271F70012780E3800FE0DF28EE33E0CD
S1130670029FC001039F900D129F900D11249E01B3
S1130680281B390B3695279536952795ABE7B4E1AA
S113069031D596958795805DC9DF9E01369527955E
S11306A036952795ABE7B4E125D59C01369527957A
S11306B044E6429FC001439F900D11249E01281BD4
S11306C0390BADECBCEC16D5969587959695879528
S11306D096958795805DAADF9E01ADECBCEC0AD5AA
S11306E09695879596958795969587959C01220F63
S11306F0331F880F991F880F991F880F991F820F26
S1130700931F9E01281B390BC901805D8FDFDF9188
S1130710CF911F910F91FF90EF9008951F920F9228
S11307200FB60F9211240BB60F922F933F934F9352
S11307305F936F937F938F939F93AF93BF93EF9345
S1130740FF9380910001843079F128F4813061F0C5
S11307508230D1F06AC0863009F447C008F434C04E
S1130760873009F452C061C0CBD0809128019091A8
S1130770290160DF8AE090E059DF8DE090E056DFE8
S113078082E08093000151C029D18091220190918F
S1130790230150DF8AE090E049DF8DE090E046DFFE
S11307A084E08093000141C00AD180912D01909191
S11307B02E0140DF8AE090E039DF8DE090E036DF03
S11307C085E08093000131C018D117DF80912F019B
S11307D0909130012FDF8AE090E028DF8DE090E0F7
S11307E025DF86E08093000120C0B6D080912401EB
S11307F0909125011FDF8AE090E018DF8DE090E002
S113080015DF87E08093000110C0B5D001DF80912F
S11308102B0190912C010EDF8AE090E007DF8DE040
S113082090E004DF81E08093000187B190910001A2
S11308309F708074892B87B9809128019091290138
S11308408536910520F08BB38E7F8BBB03C08BB3B1
S113085081608BBB8091220190912301893C910599
S113086020F08BB38D7F8BBB03C08BB382608BBBBB
S113087080912D0190912E018538934020F08BB307
S11308808B7F8BBB03C08BB384608BBB80912A01AD
S1130890882321F08BB3877F8BBB03C08BB3886025
S11308A08BBB80912401909125018536910520F020
S11308B08BB38F7E8BBB03C08BB380618BBB80916A
S11308C02B0190912C018930924020F08BB38F7BC7
S11308D08BBB03C08BB380648BBBFF91EF91BF9143
S11308E0AF919F918F917F916F915F914F913F91C4
S11308F02F910F900BBE0F900FBE0F901F90189565
S113090086B1806486B9349BFECF86B1806186B996
S113091064B175B180E090E097D129D221ED3BE834
S113092049E251E498D02DEC3CEC4CE45FE3F8D080
S11309309B01AC0160E070E080E89FE38CD09B01F8
S1130940AC0160E070E080E291E4B4D251D17093E4
S1130950290160932801089586B1806486B9349B87
S1130960FECF86B1806186B984B195B1909325019B
S113097080932401089586B1806486B9349BFECFA8
S113098086B1806186B964B175B180E090E05CD1D4
S11309902FE93BEA4DE25EE35ED09B01AC0168E4E3
S11309A071EE8CED91E4BCD020E030E04AE754E4F1
S11309B01ED21ED170932C0160932B01089586B131
S11309C0806486B9349BFECF86B1806186B984B1D8
S11309D095B190932E0180932D01089586B1806482
S11309E086B9349BFECF86B1806186B984B195B156
S11309F09093230180932201089586B1806486B97F
S1130A00349BFECF86B1806186B984B195B1909351
S1130A10300180932F01089510922E0110922D0120
S1130A2010922901109228011092230110922201A0
S1130A3010922701109226011092300110922F017A
S1130A4010922A0110922C0110922B011092250170
S1130A501092240108955058BB27AA270ED048C1EC
S1130A6039D130F03ED120F031F49F3F11F41EF41F
S1130A702EC10EF4E095E7FB24C1E92F4AD180F39F
S1130A80BA17620773078407950718F071F49EF587
S1130A9062C10EF4E0950B2EBA2FA02D0B01B90103
S1130AA090010C01CA01A0011124FF27591B99F0E0
S1130AB0593F50F4503E68F11A16F040A22F232FEC
S1130AC0342F4427585FF3CF469537952795A7953C
S1130AD0F0405395C9F77EF41F16BA0B620B730BE3
S1130AE0840BBAF09150A1F0FF0FBB1F661F771F54
S1130AF0881FC2F70EC0BA0F621F731F841F48F409
S1130B00879577956795B795F7959E3F08F0B3CF8E
S1130B109395880F08F09927EE0F97958795089578
S1130B200CD0E6C0DED040F0D5D030F021F45F3FE9
S1130B3019F0C7C0511110C1CAC0EBD098F3992362
S1130B40C9F35523B1F3951B550BBB27AA2762178D
S1130B507307840738F09F5F5F4F220F331F441FD2
S1130B60AA1FA9F333D00E2E3AF0E0E830D091500A
S1130B705040E695001CCAF729D0FE2F27D0660FF7
S1130B80771F881FBB1F261737074807AB07B0E836
S1130B9009F0BB0B802DBF01FF2793585F4F2AF04C
S1130BA09E3F510568F08DC0D7C05F3FECF3983E7F
S1130BB0DCF3869577956795B795F7959F5FC9F7A9
S1130BC0880F911D9695879597F90895E1E0660F32
S1130BD0771F881FBB1F621773078407BA0720F0AB
S1130BE0621B730B840BBA0BEE1F88F7E095089514
S1130BF098D088F09F5790F0B92F9927B751A0F05B
S1130C00D1F0660F771F881F991F1AF0BA95C9F79C
S1130C1012C0B13081F09FD0B1E008959CC0672F1D
S1130C20782F8827B85F39F0B93FCCF3869577954C
S1130C306795B395D9F73EF4909580957095619535
S1130C407F4F8F4F9F4F0895E89409C097FB3EF460
S1130C5090958095709561957F4F8F4F9F4F992305
S1130C60A9F0F92F96E9BB279395F6958795779583
S1130C706795B795F111F8CFFAF4BB0F11F460FF43
S1130C801BC06F5F7F4F8F4F9F4F16C0882311F09B
S1130C9096E911C0772321F09EE8872F762F05C0AF
S1130CA0662371F096E8862F70E060E02AF09A954A
S1130CB0660F771F881FDAF7880F9695879597F93F
S1130CC0089597F99F6780E870E060E008959FEFCA
S1130CD080EC089500240A941616170618060906CF
S1130CE0089500240A94121613061406050608959E
S1130CF0092E0394000C11F4882352F0BB0F40F426
S1130D00BF2B11F460FF04C06F5F7F4F8F4F9F4F65
S1130D10089557FD9058440F551F59F05F3F71F0E7
S1130D204795880F97FB991F61F09F3F79F087954E
S1130D300895121613061406551FF2CF4695F1DFD7
S1130D4008C0161617061806991FF1CF8695710567
S1130D50610508940895E894BB2766277727CB019B
S1130D6097F908950EF023C1B2CF6894AACFD9DFC2
S1130D70C8F39923D1F3C6F3DF93CF931F930F9353
S1130D80FF92C92FDD2788232AF02197660F771F4A
S1130D90881FDAF720E030E040E85FEB9FE3883912
S1130DA020F0803E30F021968F7756DEECE8F0E0BC
S1130DB003C052DEE9EBF0E008D18B01BE01EC0187
S1130DC0FB2E6F5771097595771F880B990B3EDFC2
S1130DD028E132E741E35FE316D0AF2D9801AE017D
S1130DE0FF900F911F91CF91DF9147DE81CF0BD000
S1130DF07FCF70DF28F075DF18F0952309F061CFFD
S1130E0066CF1124A9CF85DFA0F3959FD1F3950F69
S1130E1050E0551F629FF001729FBB27F00DB11D7A
S1130E20639FAA27F00DB11DAA1F649F6627B00D0A
S1130E30A11D661F829F2227B00DA11D621F739FF3
S1130E40B00DA11D621F839FA00D611D221F749F01
S1130E503327A00D611D231F849F600D211D822F48
S1130E60762F6A2F11249F5750408AF0E1F088238F
S1130E704AF0EE0FFF1FBB1F661F771F881F91509C
S1130E805040A9F79E3F510570F01BCF65CF5F3FDF
S1130E90ECF3983EDCF3869577956795B795F795CF
S1130EA0E7959F5FC1F7FE2B880F911D9695879557
S1130EB097F90895FA01EE0FFF1F309621053105C9
S1130EC099F16115710561F48038BFE39B0749F11D
S1130ED068949038810561F08038BFEF9B0741F03A
S1130EE0992342F5FF3FE1053105210511F1E8940D
S1130EF00894E795D901AA2329F4AB2FBE2FF85FF4
S1130F00D0F310C0FF5F70F4A695E0F7F73950F006
S1130F1019F0FF3A38F49F779F930CD00F9007FC99
S1130F20905808953EF0D3CE60E070E080E89FE3EF
S1130F3008954FE79F775F934F933F932F9317DF66
S1130F402F913F914F915F9152DF05C019F40EF03C
S1130F50B8CE01CFBCCEE5DEC8F39638C0F707F8AB
S1130F600F92E8942BE33AEA48EB5FE74EDF0F92E7
S1130F700F920F924DB75EB70F9289D0E6EEF0E074
S1130F8024D04F915F91EF91FF91E595EE1FFF1FE4
S1130F9049F0FE57E0684427EE0F441FFA95E1F745
S1130FA04195550B40D00F9007FE34C008959F3FE4
S1130FB031F0915020F4879577956795B795880F10
S1130FC0911D9695879597F90895DF93CF931F9375
S1130FD00F93FF92EF92DF927B018C01689405C01E
S1130FE0DA2EEF0110DFFE01E894A59125913591E9
S1130FF045915591AEF3EF0140DDFE019701A80143
S1131000DA9479F7DF90EF90FF900F911F91CF91D1
S1131010DF9108959B01AC0160E070E080E89FE3FC
S11310207FCD4FCEC4CF7DDEE8F39923D9F3940F5F
S1131030511DBBF39150504094F059F0882332F085
S1131040660F771F881F91505040C1F79E3F51058E
S113105044F7880F911D9695879597F908955F3FFA
S1131060ACF0983E9CF0BB27869577956795B7952D
S113107008F4B1609395C1F7BB0F58F711F460FF02
S1131080E8CF6F5F7F4F8F4F9F4FE3CF65CEFA015D
S1131090DC01AA0FBB1F9B01AC01BF5728F4222718
S11310A03327442750781FC0B75188F4AB2F00244E
S11310B0469537952795011CA395D2F3002069F036
S11310C0220F331F441FB395DAF30DD0C4CC613023
S11310D07105A0E88A07B94630F49B01AC01662784
S11310E0772788279078309621F0208331834283B4
S11310F053830895A29FB001B39FC001A39F700DB5
S1131100811D1124911DB29F700D811D1124911D0B
S10911100895F894FFCFDE
S10511160100D2
S9030000FC
