S01700004763634170706C69636174696F6E312E737265635B
S113000045C00000ABC000005FC000005CC0000041
S11300105AC0000058C0000056C0000054C0000080
S113002052C0000050C000004EC000004CC0000090
S11300304AC0000048C0000046C0000044C00000A0
S113004052C0000040C000003EC000003CC00000A0
S11300503AC0000038C0000036C0000034C00000C0
S113006032C0000030C000002EC000002CC00000D0
S11300702AC0000028C0000026C0000024C00000E0
S113008022C0000020C000001EC0000011241FBEBA
S1130090CFEFD0E1DEBFCDBF11E0A0E0B1E0E4E9F5
S11300A0F3E000E00BBF02C007900D92A030B1074F
S11300B0D9F721E0A0E0B1E001C01D92AA32B20755
S11300C0E1F702D165C19CCF1F920F920FB60F9238
S11300D011248F9381E0809312018F910F900FBEB2
S11300E00F901F9018951F920F920FB60F92112424
S11300F08F9380910101811103C085B315BA03C0A8
S113010085B3806885BB8F910F900FBE0F901F90B1
S1130110189510929B0088E180939A0086E0809362
S11301209D001092980087E680939900089582E8D4
S11301308FBD8BE18EBD87E893E197BD86BD0895A1
S11301408FEF8ABB11BA87BB80E884BB0895909176
S11301509B0095FFFCCF80939C0008951F920F9203
S11301600FB60F9211240BB60F922F933F934F9318
S11301705F936F937F938F939F93AF93BF93EF930B
S1130180FF9380E3E4DFFF91EF91BF91AF919F91E3
S11301908F917F916F915F914F913F912F910F902C
S11301A00BBE0F900FBE0F901F90189580919B006F
S11301B088230CF087C080919C0080930201809179
S11301C000018230B1F08330B1F1813009F054C0C4
S11301D0809102018E3239F4109200018091020163
S11301E0B6DF80E0089580910201805380930A0174
S11301F043C0809102018E3239F410920001809143
S11302000201A5DF80E00895EAE0F1E081819281B6
S11302109C01220F331F880F991F880F991F880F85
S1130220991F820F931F20910201820F911DC09785
S11302309283818321C0809102018E3239F410921D
S113024000018091020183DF81E00895EAE0F1E09A
S1130250838194819C01220F331F880F991F880F7B
S1130260991F880F991F820F931F20910201820FFB
S1130270911DC0979483838380910201833231F46A
S113028010920A0181E08093000117C0809102015D
S1130290813241F410920C0110920B0182E08093A0
S11302A000010BC0809102018A3239F410920E01D0
S11302B010920D0183E0809300018091020147DFD9
S11302C080E0089580E00895F8943ADF30DF21DF7C
S11302D083E089BF8FE080936A00789485B3806857
S11302E085BB84E190E0909317018093160181E02F
S11302F08093090187E791E044D0109212018FE3C3
S11303009CE90197F1F700C0000050DF882359F100
S113031080910A01813021F488EC90E032D009C048
S1130320823021F484EF91E02CD003C087E791E080
S113033028D0C0E013C09FEF21EE84E0915020400C
S11303408040E1F700C0000080911201813029F45F
S11303508CE692E016D010921201CF5FC23358F3AC
S113036082E890E00ED080B38370813019F082303F
S113037021F0C5CF85B315BAC2CF85B3806885BBDC
S1130380BECF90931401809313019BBD8ABD089541
S1070390F894FFCF0B
S9030000FC
