:1000000045C0000087C000007BC000005CC000004D
:100010005AC0000058C0000056C0000054C0000084
:1000200052C0000050C000004EC000004CC0000094
:100030004AC0000048C0000046C0000044C00000A4
:1000400084C0000040C000003EC000003CC0000072
:100050003AC0000038C0000036C0000034C00000C4
:1000600032C0000030C000002EC000002CC00000D4
:100070002AC0000028C0000026C0000024C00000E4
:1000800022C0000020C000001EC0000011241FBEBE
:10009000CFEFD0E1DEBFCDBF11E0A0E0B1E0E0E8FE
:1000A000F7E000E00BBF02C007900D92A230B1074D
:1000B000D9F721E0A2E0B1E001C01D92A532B2075C
:1000C000E1F7C2D05BC39CCF10929B0088E1809384
:1000D0009A0086E080939D001092980087E68093B6
:1000E0009900089595B3907F892B85BB2FEF81EE02
:1000F00094E0215080409040E1F700C00000089556
:100100001F920F920FB60F9211240F900FBE0F90F7
:100110001F9018951F920F920FB60F9211240F90F7
:100120000FBE0F901F90189582E88FBD8BE18EBD9A
:1001300087E893E197BD86BD08958FEF8ABB11BA1A
:1001400087BB84BB1092610008951F920F920FB677
:100150000F9211240BB60F922F933F934F935F93FF
:100160006F937F938F939F93AF93BF93EF93FF937F
:10017000809100018330D1F028F4813049F0823041
:1001800071F02DC0853001F1C0F0863021F127C01B
:10019000E7D0809100018F5F8093000120C034D1AF
:1001A000809100018F5F8093000119C018D1809168
:1001B00000018F5F8093000112C03BD1809100014C
:1001C0008F5F809300010BC0E0D0809100018F5FB2
:1001D0008093000104C0EED081E08093000187B1DC
:1001E000909100019F70807F892B87B986B18064D0
:1001F00086B9FF91EF91BF91AF919F918F917F91C0
:100200006F915F914F913F912F910F900BBE0F9087
:100210000FBE0F901F90189585B3806885BB089519
:10022000CF93DF93EC0189E05DDFDBBDCABDDF91D9
:10023000CF910895CF93DF93EC018DE053DFDBBDC9
:10024000CABDDF91CF910895F89477DF6DDF3CDF71
:1002500083E089BF8FE080936A0078948FEF84BB3E
:1002600015BA10921901D8DF84E190E090931E0135
:1002700080931D0181E08093150187E791E0EED026
:100280008FE39CE90197F1F700C0000080B3837011
:10029000813031F08230A1F784EF91E0C1DFF0CFFF
:1002A00084EF91E0C7DFECCF8F929F92AF92BF9225
:1002B000CF92DF92EF92FF92CF93DF93EC0169012F
:1002C0007A0180E090E069D1A7019601F4D14B0159
:1002D0005C01A701960160E070E080E89FE3CCD06C
:1002E0006B017C01BE0180E090E057D1A70196012F
:1002F000E2D19B01AC01C501B401BFD022D1CB0139
:10030000DF91CF91FF90EF90DF90CF90BF90AF90B3
:100310009F908F900895CF92DF92EF92FF92CF93AC
:10032000DF93EC0169017A01680F791F80E090E0AA
:1003300034D1A7019601BFD16B017C01BE0180E0E1
:1003400090E02BD19B01AC01C701B60195D0F9D04B
:10035000CB01DF91CF91FF90EF90DF90CF90089588
:1003600064B175B12DEC3CEC4CEC5DE380910C017B
:1003700090910D0199DF809316018091160190E014
:1003800090930D0180930C01089564B175B12DEC2B
:100390003CEC4CEC5DE380910A0190910B0184DF11
:1003A000809311018091110190E090930B01809353
:1003B0000A01089564B175B12DEC3CEC4CEC5DE3A1
:1003C00080910801909109016FDF80931C01809159
:1003D0001C0190E09093090180930801089564B195
:1003E00075B12AE939E949E15FE38091060190910D
:1003F000070191DF80931F0180911F0190E090938E
:10040000070180930601089564B175B120E030E0E2
:1004100040E05FE380910401909105017CDF8093CF
:1004200010018091100190E09093050180930401E8
:10043000089564B175B12DEC3CEC4CEC5DE380911A
:1004400002019091030130DF809324018091240107
:1004500090E090930301809302010895CF93DF937E
:10046000EC0182E03FDED0931B01C0931A01DBBD9B
:10047000CABDDF91CF9108955058BB27AA270ED04F
:10048000E0C0D1D030F0D6D020F031F49F3F11F44D
:100490001EF4C6C00EF4E095E7FBBCC0E92FE2D025
:1004A00080F3BA17620773078407950718F071F491
:1004B0009EF5FAC00EF4E0950B2EBA2FA02D0B017D
:1004C000B90190010C01CA01A0011124FF27591B99
:1004D00099F0593F50F4503E68F11A16F040A22F9F
:1004E000232F342F4427585FF3CF46953795279510
:1004F000A795F0405395C9F77EF41F16BA0B620B0F
:10050000730B840BBAF09150A1F0FF0FBB1F661F55
:10051000771F881FC2F70EC0BA0F621F731F841F98
:1005200048F4879577956795B795F7959E3F08F0BE
:10053000B3CF9395880F08F09927EE0F979587957D
:10054000089598D088F09F5790F0B92F9927B75108
:10055000A0F0D1F0660F771F881F991F1AF0BA9587
:10056000C9F712C0B13081F09FD0B1E008959CC0AE
:10057000672F782F8827B85F39F0B93FCCF386957D
:1005800077956795B395D9F73EF4909580957095DA
:1005900061957F4F8F4F9F4F0895E89409C097FB57
:1005A0003EF490958095709561957F4F8F4F9F4F4A
:1005B0009923A9F0F92F96E9BB279395F69587958E
:1005C00077956795B795F111F8CFFAF4BB0F11F451
:1005D00060FF1BC06F5F7F4F8F4F9F4F16C08823F8
:1005E00011F096E911C0772321F09EE8872F762F2E
:1005F00005C0662371F096E8862F70E060E02AF06F
:100600009A95660F771F881FDAF7880F969587955A
:1006100097F9089597F99F6780E870E060E0089582
:100620009FEF80EC089500240A941616170618060A
:100630000906089500240A941216130614060506E6
:100640000895092E0394000C11F4882352F0BB0F77
:1006500040F4BF2B11F460FF04C06F5F7F4F8F4FDA
:100660009F4F089557FD9058440F551F59F05F3F15
:1006700071F04795880F97FB991F61F09F3F79F0C4
:1006800087950895121613061406551FF2CF469546
:10069000F1DF08C0161617061806991FF1CF8695C8
:1006A0007105610508940895E894BB2766277727AC
:1006B000CB0197F908950BD0C4CFB5DF28F0BADF8E
:1006C00018F0952309F0A6CFABCF1124EECFCADFE7
:1006D000A0F3959FD1F3950F50E0551F629FF00155
:1006E000729FBB27F00DB11D639FAA27F00DB11DAE
:1006F000AA1F649F6627B00DA11D661F829F222737
:10070000B00DA11D621F739FB00DA11D621F839FBD
:10071000A00D611D221F749F3327A00D611D231F93
:10072000849F600D211D822F762F6A2F11249F57E1
:1007300050408AF0E1F088234AF0EE0FFF1FBB1F04
:10074000661F771F881F91505040A9F79E3F5105A3
:1007500070F060CFAACF5F3FECF3983EDCF3869554
:1007600077956795B795F795E7959F5FC1F7FE2B4E
:10077000880F911D9695879597F90895F894FFCF66
:02078000010076
:00000001FF
