:1000000045C0000060C000005EC000005CC0000091
:100010005AC0000058C0000056C0000054C0000084
:1000200052C0000050C000004EC000004CC0000094
:100030004AC0000048C0000046C0000044C00000A4
:1000400043C0000040C000003EC000003CC00000B3
:100050003AC0000038C0000036C0000034C00000C4
:1000600032C0000030C000002EC000002CC00000D4
:100070002AC0000028C0000048C0000024C00000C2
:1000800022C0000020C000001EC0000011241FBEBE
:10009000CFEFD0E1DEBFCDBF11E0A0E0B1E0ECEEEC
:1000A000F3E000E00BBF02C007900D92A230B10751
:1000B000D9F721E0A2E0B1E001C01D92A231B20760
:1000C000E1F7F9D091C19CCF1F920F920FB60F921A
:1000D00011248F9380910001813089F0809111016A
:1000E000823318F081E080930C0180910D018233FE
:1000F00020F081E08093030102C0109203018F91F0
:100100000F900FBE0F901F9018951F920F920FB671
:100110000F9211240BB60F922F933F934F935F933F
:100120008F939F93EF93FF9380919C0080930201A4
:1001300080910201807E803461F0803821F080322D
:1001400009F070C03BC08091020187708093060166
:1001500069C080910201482F417050E0E6E0F1E073
:100160005283418380910201827090E0959587953A
:100170009C01220F331F880F991F880F991F880F2A
:10018000991F820F931F21813281820F931F9283C7
:10019000818380910201847090E095958795959573
:1001A000879544E6489F9001499F300D1124818135
:1001B0009281820F931F9283818334C080910201C8
:1001C000282F217030E0E6E0F1E034832383809132
:1001D0000201827090E0959587959C01220F331F54
:1001E000880F991F880F991F880F991F820F931FDF
:1001F00023813481820F931F948383838091020132
:10020000847090E0959587959595879544E6489FED
:100210009001499F300D112483819481820F931F97
:1002200094838383FF91EF919F918F915F914F9181
:100230003F912F910F900BBE0F900FBE0F901F900C
:1002400018951BB888E18AB986E0809395001092D2
:1002500090008AE089B90895109204018091040108
:1002600027E8829FC001112464E873E096D0665F9E
:1002700063BD08958091040127E8829FC001112485
:1002800064E873E08AD0665F63BD08958EE1809371
:1002900004018091040127E8829FC001112464E8D1
:1002A00073E07BD0665F63BD089580910F019091EC
:1002B000100183BD0895CF93DF9300D0CDB7DEB793
:1002C000C0DFE6E0F1E010828FEF9FEF9283818341
:1002D00094838383C1DF80910001843031F128F45D
:1002E000813051F0823089F0F6CF883009F442C075
:1002F000803109F44DC0EFCF80910E01823328F098
:1003000080910001880F809300018091060188236D
:1003100011F3E6E0F1E08181928183819481809103
:100320000001880F80930001D6CFA4DF1A821982C2
:1003300013C089EF90E00197F1F700C000008091B1
:100340000301882321F0809103018111FCCF898171
:100350009A8101969A83898389819A81883E934004
:1003600044F394DF10920C0180910001880F809378
:100370000001B1CF80910C01813009F0ACCF109217
:100380000C016ADF80910001880F80930001A3CFE8
:100390008CDF81E0809300019ECF97FB072E16F43F
:1003A000009406D077FD08D00BD007FC05D03EF4B2
:1003B000909581959F4F0895709561957F4F089511
:1003C000AA1BBB1B51E107C0AA1FBB1FA617B7077B
:1003D00010F0A61BB70B881F991F5A95A9F7809597
:0C03E0009095BC01CD010895F894FFCF6A
:0203EC0001000E
:00000001FF
