S01700004763634170706C69636174696F6E312E737265635B
S113000045C0000060C000005EC000005CC000008D
S11300105AC0000058C0000056C0000054C0000080
S113002052C0000050C000004EC000004CC0000090
S11300304AC0000048C0000046C0000044C00000A0
S113004043C0000040C000003EC000003CC00000AF
S11300503AC0000038C0000036C0000034C00000C0
S113006032C0000030C000002EC000002CC00000D0
S11300702AC0000028C0000026C0000024C00000E0
S113008022C0000020C000001EC0000011241FBEBA
S1130090CFEFD0E1DEBFCDBF11E0A0E0B1E0ECECEA
S11300A0F3E000E00BBF02C007900D92A030B1074F
S11300B0D9F721E0A0E0B1E001C01D92A932B20756
S11300C0E1F7CAD081C19CCF1F920F920FB60F9255
S11300D011248F9380910101811103C085B315BA56
S11300E003C085B3806885BB8F910F900FBE0F90BE
S11300F01F90189510929B0088E180939A0086E0E7
S113010080939D001092980087E68093990008954B
S113011082E88FBD8BE18EBD87E893E197BD86BDF4
S113012008958FEF8ABB11BA87BB80E884BB08951A
S113013090919B0095FFFCCF80939C000895809143
S11301409B0088230CF086C080919C008093020160
S1130150809100018230A9F08330A9F1813009F047
S113016053C0809102018E3239F4109200018091C3
S11301700201DEDF80E0089580910201809309018D
S113018043C0809102018E3239F4109200018091B3
S11301900201CEDF80E00895E9E0F1E081819281FF
S11301A09C01220F331F880F991F880F991F880FF6
S11301B0991F820F931F20910201820F911DC097F6
S11301C09283818321C0809102018E3239F410928E
S11301D0000180910201ACDF81E00895E9E0F1E0E3
S11301E0838194819C01220F331F880F991F880FEC
S11301F0991F880F991F820F931F20910201820F6C
S1130200911DC0979483838380910201833231F4DA
S11302101092090181E08093000117C080910201CE
S1130220813241F410920B0110920A0182E0809312
S113023000010BC0809102018A3239F410920D0141
S113024010920C0183E0809300018091020170DF21
S113025080E0089580E00895F89463DF59DF4ADF71
S1130260789485B3806885BB84E190E0909316010F
S11302708093150181E08093080187E791E02ED0F7
S11302808FE39CE90197F1F700C0000058DF882351
S1130290A9F080910A0190910B018B37910521F40B
S11302A088EC90E01BD00AC08134914021F484EFA3
S11302B091E014D003C087E791E010D080B383703D
S11302C0813019F0823029F0DBCF85B315BA3CD0E8
S11302D0D7CF85B3806885BB57D0D2CF9093130115
S11302E0809312019BBD8ABD089580E090E01CC0FC
S11302F0019640911501509116018417950771F4E8
S11303008091180190911901280F391F309313011E
S1130310209312013BBD2ABD80E090E0EFE8F1E0BC
S11303203197F1F700C000002091120130911301C0
S113033040910601509107012417350721F040919F
S113034008014111D5CF08958CE692E090930701FE
S113035080930601209112013091130180910601CE
S1130360909107012817390738F08FEF9FEF90938A
S113037019018093180106C081E090E0909319015F
S113038080931801B2CF089582E890E0909307011A
S1130390809306012091120130911301809106018E
S11303A0909107012817390738F08FEF9FEF90934A
S11303B019018093180106C081E090E0909319011F
S10F03C08093180192CF0895F894FFCFA9
S9030000FC
