S01700004763634170706C69636174696F6E312E737265635B
S113000045C0000060C000005EC000005CC000008D
S11300105AC0000058C0000056C0000054C0000080
S113002052C0000050C000004EC000004CC0000090
S11300304AC0000048C0000046C0000044C00000A0
S1130040E6C1000040C000003EC000003CC000000B
S11300503AC0000038C0000036C0000034C00000C0
S113006032C0000030C000002EC000002CC00000D0
S11300702AC0000028C0000026C0000024C00000E0
S113008022C0000020C000001EC0000011241FBEBA
S1130090CFEFD0E1DEBFCDBF11E0A0E0B1E0E2E000
S11300A0F7E000E00BBF02C007900D92A230B10749
S11300B0D9F721E0A2E0B1E001C01D92A333B20759
S11300C0E1F7F7D01CC39CCF10929B0088E180938A
S11300D09A0086E080939D001092980087E68093B2
S11300E09900089590919B0095FFFCCF80939C000C
S11300F0089580919B0088230CF087C080919C0018
S113010080930301809102018230B1F08330B1F118
S1130110813009F054C0809103018E3239F4109279
S1130120020180910301DEDF80E0089580910301E4
S113013080538093040143C0809103018E3239F4CB
S11301401092020180910301CDDF80E00895E4E084
S1130150F1E0818192819C01220F331F880F991F46
S1130160880F991F880F991F820F931F20910301F5
S1130170820F911DC0979283818321C080910301D6
S11301808E3239F41092020180910301ABDF81E0D9
S11301900895E4E0F1E0838194819C01220F331FF0
S11301A0880F991F880F991F880F991F820F931F1B
S11301B020910301820F911DC097948383838091C2
S11301C00301833231F41092040181E0809302012F
S11301D017C080910301813241F4109206011092FC
S11301E0050182E0809302010BC0809103018A32F1
S11301F039F4109208011092070183E08093020100
S1130200809103016FDF80E0089580E0089595B345
S1130210907F892B85BB2FEF81EE94E021508040A5
S11302209040E1F700C00000089583B7876083BF62
S113023087B7816087BF12BE089582E88FBD8BE1C6
S11302408EBD87E893E197BD86BD08958FEF8ABB85
S113025011BA87BB84BB10926100089580E487B90A
S113026087E886B9089585B38F7785BB089585B3EC
S1130270806885BB0895CF93DF93EC0189E0C7DFE5
S1130280DBBDCABDDF91CF910895CF93DF93EC011D
S11302908DE0BDDFDBBDCABDDF91CF910895CF9363
S11302A0DF93EC0181E0B3DFDBBDCABDDF91CF9109
S11302B00895CCDFD3DFB9DFC0DF06DF5DD1D7DF40
S11302C0E4E0F1E085E080838FEF9FEF9283818308
S11302D094838383789484E190E090932A018093BB
S11302E0290181E080931F0187E791E0DBD192D15E
S11302F080910101843039F128F4813049F0823051
S1130300C9F0F6CF8830B1F1803109F45BC0F0CF89
S113031080912B0190912C018538934048F383E020
S113032076DFA1DF80E3DEDE80910101880F809318
S11303300101DECFDEDE8823D9F280910101880F2E
S113034080930101D5CF87E791E0ACD18CDF86D1D2
S1130350109224018CDF8FEF97EA21E681509040C0
S11303602040E1F700C0000080910101880F8093D4
S11303700101BECF80912401813049F410922401FF
S113038049D180910101880F80930101B1CF84E1AB
S1130390B0D140D168DF10921E0110921D0180E59A
S11303A0A8D15CD164DF81E090E090931E0180933A
S11303B01D0184E19ED12ED180910101880F80938B
S11303C0010196CF80910401811104C084EF91E072
S11303D052DF0EC0813021F484EF91E056DF08C073
S11303E0823021F484EF91E05ADF02C083E00FDF12
S11303F081E0809301017CCF8091310190913201A1
S11304008538934018F481E08093240108951F9265
S11304100F920FB60F9211240BB60F922F933F93A6
S11304204F935F936F937F938F939F93AF93BF93F8
S1130430EF93FF93809100018430B1F028F4813070
S113044049F0823061F024C08630C9F090F08730E2
S1130450D9F01EC037D082E08093000119C06ED05D
S113046084E08093000114C05AD085E08093000199
S11304700FC073D0C1DF86E08093000109C031D082
S113048087E08093000104C03BD081E080930001A9
S113049087B1909100019F708074892B87B9FF9177
S11304A0EF91BF91AF919F918F917F916F915F91E8
S11304B04F913F912F910F900BBE0F900FBE0F9055
S11304C01F90189586B1806486B9349BFECF86B19F
S11304D0806186B984B195B1909321018093200104
S11304E0089586B1806486B9349BFECF86B180615D
S11304F086B984B195B190931A0180931901089536
S113050086B1806486B9349BFECF86B1806186B99A
S113051084B195B19093280180932701089586B101
S1130520806486B9349BFECF86B1806186B984B17C
S113053095B190932C0180932B01089586B180642A
S113054086B9349BFECF86B1806186B984B195B1FA
S11305509093180180931701089586B1806486B939
S1130560349BFECF86B1806186B984B195B19093F6
S1130570320180933101089510922C0110922B01C5
S1130580109221011092200110921801109217016B
S113059010921E0110921D0110923201109231012D
S11305A010922401109228011092270110921A012E
S11305B010921901089580E090E01CC001964091CA
S11305C0290150912A018417950771F480912D0116
S11305D090912E01280F391F309326012093250175
S11305E03BBD2ABD80E090E0EFE8F1E03197F1F700
S11305F000C00000209125013091260140911B018B
S113060050911C012417350721F040911F0141111D
S1130610D5CF089582E0FBDD82E0F9DD82E890E049
S113062090931C0180931B01209125013091260198
S113063080911B0190911C012817390738F08FEF26
S11306409FEF90932E0180932D0106C081E090E0EE
S113065090932E0180932D01AECF089582E0D7DDD3
S113066082E0D5DD8CE692E090931C0180931B011F
S1130670209125013091260180911B0190911C014C
S11306802817390738F08FEF9FEF90932E0180934E
S11306902D0106C081E090E090932E0180932D01FE
S11306A08ACF0895CF93DF93EC0182E0B0DD82E03E
S11306B0AEDDD0931C01C0931B0120912501309124
S11306C0260180911B0190911C012817390738F0ED
S11306D08FEF9FEF90932E0180932D0106C081E050
S11306E090E090932E0180932D0165DFDF91CF91EF
S11306F0089590E090932A01809329010895F89435
S1050700FFCF25
S10507020101EF
S9030000FC
