:1000000045C0000060C000005EC000005CC0000091
:100010005AC0000058C0000056C0000054C0000084
:1000200052C0000050C000004EC000004CC0000094
:100030004AC0000048C0000046C0000044C00000A4
:1000400043C0000040C000003EC000003CC00000B3
:100050003AC0000038C0000036C0000034C00000C4
:1000600032C0000030C000002EC000002CC00000D4
:100070002AC0000028C000004AC0000024C00000C0
:1000800022C0000020C000001EC0000011241FBEBE
:10009000CFEFD0E1DEBFCDBF11E0A0E0B1E0E6E8F8
:1000A000F5E000E00BBF02C007900D92A230B1074F
:1000B000D9F721E0A2E0B1E001C01D92AF31B20753
:1000C000E1F771D15EC29CCF1F920F920FB60F92D3
:1000D00011248F9380910001813099F0809101016A
:1000E00080911E01823318F081E08093130180918A
:1000F0001601823320F081E08093080102C0109243
:1001000008018F910F900FBE0F901F9018951F92AE
:100110000F920FB60F9211242F933F938F939F93BB
:1001200080919C0080930701809107018A3209F435
:1001300087C080910601813069F120F0823009F496
:1001400055C07EC0909107019C3261F490910401EA
:1001500090930D0110920501109204018F5F80931E
:1001600006016EC080910401909105019C01220F4F
:10017000331F880F991F880F991F880F991F820FAF
:10018000931F20910701820F911D90930501809389
:10019000040156C0909107019C3281F42091040122
:1001A0003091050130930F0120930E01109205014B
:1001B000109204018F5F8093060142C08091040178
:1001C000909105019C01220F331F880F991F880F02
:1001D000991F880F991F820F931F20910701820F8B
:1001E000911D90930501809304012AC0809107011D
:1001F0008E3279F480910401909105019093110160
:1002000080931001109205011092040110920601D2
:1002100017C080910401909105019C01220F331FAA
:10022000880F991F880F991F880F991F820F931F9E
:1002300020910701820F911D909305018093040185
:100240009F918F913F912F910F900FBE0F901F9014
:1002500018951BB888E18AB986E0809395001092C2
:1002600090008AE089B9089580910201909103017C
:100270000196909303018093020120911701309120
:1002800018018217930771F4209114013091150120
:1002900080911A0190911B01820F931F9093150179
:1002A00080931401089510920B0110920A0120917D
:1002B00014013091150180910A0190910B012817CA
:1002C000390738F08FEF9FEF90931B0180931A014D
:1002D00006C081E090E090931B0180931A01C4CF87
:1002E0000895209114013091150180910A01909197
:1002F0000B012817390738F08FEF9FEF90931B0100
:1003000080931A0106C081E090E090931B018093D6
:100310001A01AACF08958EE190E090930B0180938B
:100320000A01209114013091150180910A019091E8
:100330000B012817390738F08FEF9FEF90931B01BF
:1003400080931A0106C081E090E090931B01809396
:100350001A018ACF089580910D01823099F028F416
:10036000882341F0813051F018C0833079F0843017
:1003700089F013C084E0809309010FC081E080936D
:1003800009010BC082E08093090107C083E08093DC
:10039000090103C084E08093090180911C019091C0
:1003A0001D0183BD089555DFEDE0F1E010828FEF70
:1003B0009FEF9283818394838383CDDF74DF809169
:1003C00000018430B9F128F4813051F0823089F095
:1003D000F6CF883009F458C0803109F4CDC0EFCF92
:1003E00080911901823328F080910001880F809359
:1003F000000180910D01882311F380910E019091ED
:100400000F019923E4F28091100190911101992339
:10041000B4F280910001880F80930001D0CF61DF9A
:1004200089EF90E00197F1F700C00000809108018A
:100430008111FCCF209114013091150180910A01A6
:1004400090910B012817390751F70BC064DF89EF32
:1004500090E00197F1F700C0000080910801811140
:10046000FCCF209114013091150180910A019091E7
:100470000B012817390751F71092130180910001E1
:10048000880F809300019BCF80911301813051F53B
:10049000109213010BC007DF89EF90E00197F1F78D
:1004A00000C00000809108018111FCCF209114014F
:1004B0003091150180910A0190910B01281739079D
:1004C00051F780910001880F8093000178CFEBDE17
:1004D00089EF90E00197F1F700C0000080910801DA
:1004E0008111FCCF209114013091150180910A01F6
:1004F00090910B012817390751F71092010184E6FA
:1005000090E090931801809317010BC004DF89EFEE
:1005100090E00197F1F700C000008091080181117F
:10052000FCCF209114013091150180910A01909126
:100530000B012817390751F781E0809301010BC0A7
:10054000B2DE89EF90E00197F1F700C000008091E2
:1005500008018111FCCF2091140130911501809187
:100560000A0190910B012817390751F7809100017A
:10057000880F8093000123CFEEDE81E0809300019D
:060580001ECFF894FFCF2E
:02058600010171
:00000001FF
