S01700004763634170706C69636174696F6E312E737265635B
S113000045C0000060C000005EC000005CC000008D
S11300105AC0000058C0000056C0000054C0000080
S113002000C2000050C000004EC000004CC00000E0
S11300304AC0000048C0000046C0000044C00000A0
S11300400AC3000040C000003EC000003CC00000E5
S11300503AC0000038C0000036C0000034C00000C0
S113006032C0000030C000002EC000002CC00000D0
S11300702AC0000028C0000026C0000024C00000E0
S113008022C0000020C000001EC0000011241FBEBA
S1130090CFEFD0E1DEBFCDBF11E0A0E0B1E0E8EAF0
S11300A0F8E000E00BBF02C007900D92A230B10748
S11300B0D9F721E0A2E0B1E001C01D92A533B20757
S11300C0E1F7E0D1EFC39CCF10929B0088E18093CD
S11300D09A0086E080939D001092980087E68093B2
S11300E09900089590919B0095FFFCCF80939C000C
S11300F0089580919B0088230CF087C080919C0018
S113010080930601809102018230B1F08330B1F115
S1130110813009F054C0809106018E3239F4109276
S1130120020180910601DEDF80E0089580910601DE
S113013080538093070143C0809106018E3239F4C5
S11301401092020180910601CDDF80E00895E7E07E
S1130150F1E0818192819C01220F331F880F991F46
S1130160880F991F880F991F820F931F20910601F2
S1130170820F911DC0979283818321C080910601D3
S11301808E3239F41092020180910601ABDF81E0D6
S11301900895E7E0F1E0838194819C01220F331FED
S11301A0880F991F880F991F880F991F820F931F1B
S11301B020910601820F911DC097948383838091BF
S11301C00601833231F41092070181E08093020129
S11301D017C080910601813241F4109209011092F6
S11301E0080182E0809302010BC0809106018A32EB
S11301F039F410920B0110920A0183E080930201FA
S1130200809106016FDF80E0089580E0089595B342
S1130210907F892B85BB2FEF81EE94E021508040A5
S11302209040E1F700C00000089540E050E021C094
S113023020911C012223B9F04F5F5F4F20912101CF
S1130240309122014217530771F420912301309118
S11302502401820F931F9093200180931F019BBD63
S11302608ABD40E050E08FE891E00197F1F700C0CB
S1130270000080911F019091200120911A0130917A
S11302801B0182179307A1F6089580911F01909195
S113029020019BBD8ABD82E0BADF82E0B8DF82E83C
S11302A090E090931B0180931A0120911F013091DB
S11302B0200180911A0190911B012817390738F009
S11302C08FEF9FEF909324018093230106C081E078
S11302D090E09093240180932301A7CF0895809107
S11302E01F01909120019BBD8ABD82E090DF82E0D6
S11302F08EDF8CE692E090931B0180931A0120918B
S11303001F013091200180911A0190911B0128173F
S1130310390738F08FEF9FEF9093240180932301E6
S113032006C081E090E090932401809323017DCF67
S11303300895CF93DF93EC0180911F0190912001E8
S11303409BBD8ABD82E063DF82E061DFD0931B0145
S1130350C0931A0120911F013091200180911A014C
S113036090911B012817390738F08FEF9FEF909376
S113037024018093230106C081E090E0909324013E
S11303808093230152DFDF91CF91089590E0909301
S11303902201809321010895CF93DF93EC0183E040
S11303A036DF87E893E197BD86BDDBBDCABD89E032
S11303B02EDFDF91CF910895CF93DF93EC0183E09B
S11303C026DF87E893E197BD86BDDBBDCABD8DE01E
S11303D01EDFDF91CF910895CF93DF93EC0183E08B
S11303E016DF87E893E197BD86BDDBBDCABD81E01A
S11303F00EDFDF91CF910895CF93DF93EC0183E07B
S113040006DFD7BDC6BD86B597B5969587959BBDC6
S11304108ABD8EE0FCDEDF91CF91089583E0F7CEB4
S113042008951F920F920FB60F9211240F900FBED2
S11304300F901F90189583B7876083BF87B781603B
S113044087BF12BE089582E88FBD8BE18EBD87E819
S113045093E197BD86BD08958FEF8ABB11BA87BB20
S113046084BB1092610012B8089580E487B987E8CC
S113047086B9089585B38F7785BB089585B3806861
S113048085BB0895E9DFF1DFD6DFDDDF1DDE80EC1B
S113049089BF80EF8ABFE7D1F1DFE7E0F1E085E0D3
S11304A080838FEF9FEF92838183948383837894F7
S11304B081E080931C0184E169DF87E791E039DF03
S11304C0E4DEC1E0C430F9F028F4C13049F0C230B0
S11304D0A9F0F8CFC83051F1C03109F447C0F2CFC8
S11304E080913001909131018538934058F383E035
S11304F08EDEC0DF80E3F6DDCC0FE4CFFADD8823A7
S113050009F3CC0FDFCF87E791E013DFB3DFE7DE3A
S113051010922D01B3DF8FEF97EA21E681509040CE
S11305202040E1F700C00000CC0FCCCF80912D011A
S1130530813029F410922D01A8DECC0FC3CF84E1C1
S113054025DFA3DE97DF10922A011092290180E5AE
S11305501DDFC5DE93DF81E090E090932A01809354
S1130560290184E113DF91DECC0FACCF8091070128
S1130570811105C084EF91E00FDFC1E0A3CF823089
S113058029F484EF91E018DFC1E09CCF813029F495
S113059084EF91E021DFC1E095CF83E038DEC1E054
S11305A091CF80913201909133018538934018F4B2
S11305B081E080932D01089580912E0190912F0167
S11305C08930924018F010921C01089581E08093C4
S11305D01C0108958091270190912801843F914046
S11305E0B0F180910501811112C081E08093050171
S11305F080910401882319F0813029F0089582E361
S113060090E0FACE089586E490E0F6CE08958091C5
S113061003018F5F809303018431E0F08091040132
S1130620882321F081E08093040102C01092040128
S113063080910401882319F0813029F0089582E320
S113064090E0DACE089586E490E0D6CE0895109234
S11306500501E4CE08951F920F920FB60F92112454
S11306600BB60F922F933F934F935F936F937F93A8
S11306708F939F93AF93BF93EF93FF938091000168
S11306808430B1F028F4813049F0823061F026C022
S11306908630C9F090F08730E1F020C08AD082E043
S11306A0809300011BC0C1D084E08093000116C078
S11306B0ADD085E08093000111C0C6D072DF86E022
S11306C0809300010BC084D085DF87E08093000114
S11306D005C08DD071DF81E08093000187B19091D6
S11306E000019F708074892B87B980912B019091B0
S11306F02C018536910520F08BB38E7F8BBB03C014
S11307008BB381608BBB8091250190912601893C3C
S1130710910520F08BB38D7F8BBB03C08BB38260BC
S11307208BBB80913001909131018538934020F04A
S11307308BB38B7F8BBB03C08BB384608BBB8091EB
S11307402D01882321F08BB3877F8BBB03C08BB330
S113075088608BBB80912701909128018536910593
S113076020F08BB38F7E8BBB03C08BB380618BBBBC
S113077080912E0190912F018930924020F08BB30B
S11307808F7B8BBB03C08BB380648BBBFF91EF91DA
S1130790BF91AF919F918F917F916F915F914F9195
S11307A03F912F910F900BBE0F900FBE0F901F9093
S11307B0189586B1806486B9349BFECF86B180617A
S11307C086B984B195B190932C0180932B0108953F
S11307D086B1806486B9349BFECF86B1806186B9C8
S11307E084B195B19093280180932701089586B12F
S11307F0806486B9349BFECF86B1806186B984B1AA
S113080095B190932F0180932E01089586B1806451
S113081086B9349BFECF86B1806186B984B195B127
S11308209093310180933001089586B1806486B934
S1130830349BFECF86B1806186B984B195B1909323
S1130840260180932501089586B1806486B9349B7E
S1130850FECF86B1806186B984B195B1909333019E
S11308608093320108951092310110923001109258
S11308702C0110922B011092260110922501109246
S11308802A01109229011092330110923201109220
S11308902D0110922F0110922E0110922801109216
S10B08A027010895F894FFCF2D
S10508A8010049
S9030000FC
