S01700004763634170706C69636174696F6E312E737265635B
S113000086C00000A2C00000A0C000009EC0000086
S11300109CC000009AC0000098C0000096C0000078
S113002094C0000092C0000026C400008EC00000EE
S11300308CC000008AC0000088C0000086C0000098
S113004085C2000082C0000080C000007EC00000A5
S11300500C94430A7AC0000078C0000076C0000007
S113006074C0000072C0000070C000006EC00000C8
S11300706CC000006AC0000068C0000066C00000D8
S113008064C0000062C0000060C0000008000000FE
S1130090BE922449123EABAAAA2ABECDCCCC4C3E79
S11300A000000080BEABAAAAAA3E00000000BF0068
S11300B00000803F0000000000084178D3BB438764
S11300C0D1133D190E3CC3BD4282AD2B3E68EC8278
S11300D076BED98FE1A93E4C80EFFFBE01C4FF7FFD
S11300E03F000000000007634236B79BD8A71A39C7
S11300F0685618AEBAAB558C1D3CB7CC5763BD6D72
S1130100EDFD753EF6177231BF000000803F1124EB
S11301101FBECFEFD0E1DEBFCDBF11E0A0E0B1E064
S1130120EAE9FCE100E00BBF02C007900D92A6399A
S1130130B107D9F722E0A6E9B1E001C01D92AE34BF
S1130140B207E1F76ED20C944B0E5ACF10929B007B
S113015088E180939A0086E080939D001092980035
S113016087E680939900089590919B0095FFFCCFBA
S113017080939C00089580919B0088230CF083C099
S113018080919C0080931B02809196018230A9F09B
S11301908330A1F1813009F051C080911B028E326D
S11301A031F41092960181E0DFDF80E008958091C0
S11301B01B02805380931C0241C080911B028E322B
S11301C031F41092960181E0CFDF80E00895ECE1F4
S11301D0F2E0818192819C01220F331F880F991FC5
S11301E0880F991F880F991F820F931F20911B025C
S11301F0820F911DC0979283818320C080911B023E
S11302008E3231F41092960181E0AEDF81E00895E0
S1130210ECE1F2E0838194819C01220F331F880F6B
S1130220991F880F991F880F991F820F931F209180
S11302301B02820F911DC0979483838380911B02BC
S1130240833231F410921C0281E08093960117C02E
S113025080911B02813241F410921E0210921D0201
S113026082E0809396010BC080911B028A3239F49C
S11302701092200210921F0283E08093960181E085
S113028073DF80E0089580E0089595B3907F892B13
S113029085BB2FEF81EE94E0215080409040E1F740
S11302A000C0000008952BE030E014C0F901EE0F07
S11302B0FF1FE85EFE4F408151814817590744F4FF
S11302C0220F331FF901E050FF4F8081918108957F
S11302D021503109332354F780911601909117016D
S11302E0089540E050E021C0209137022223B9F064
S11302F04F5F5F4F209141023091420242175307F2
S113030070F02091450230914602820F931F909322
S11303103E0280933D029BBD8ABD40E050E08FE8E1
S113032091E00197F1F700C0000080913D029091A7
S11303303E0220913302309134028217930721F058
S113034020914902222381F2089583E09EDF87E809
S113035093E197BD86BD80913D0290913E029BBD85
S11303608ABD8CE692E0909334028093330220910C
S11303703D0230913E02809133029091340228175D
S1130380390738F08FEF9FEF909346028093450230
S113039006C081E090E0909346028093450282E09B
S11303A074DF9FCF089583E070DF87E893E197BD02
S11303B086BD80913D0290913E029BBD8ABD82E83C
S11303C090E0909334028093330220913D02309167
S11303D03E0280913302909134022817390738F095
S11303E08FEF9FEF909346028093450206C081E011
S11303F090E0909346028093450282E046DF71CFFD
S11304000895CF93DF93EC0183E03FDF87E893E126
S113041097BD86BD80913D0290913E029BBD8ABDF1
S1130420D0933402C093330220913D0230913E02B6
S113043080913302909134022817390738F08FEFF6
S11304409FEF909346028093450206C081E090E0BE
S1130450909346028093450282E017DF42DFDF91EA
S1130460CF91089590E090934202809341020895C1
S1130470CF93DF93EC0183E008DF87E893E197BD36
S113048086BDDBBDCABD85E000DFDF91CF91089555
S1130490CF93DF93EC0183E0F8DE87E893E197BD27
S11304A086BDDBBDCABD8DE0F0DEDF91CF9108953E
S11304B0CF93DF93EC0183E0E8DE87E893E197BD17
S11304C086BDDBBDCABD81E0E0DEDF91CF9108953A
S11304D0CF93DF93EC0183E0D8DED7BDC6BD86B5EC
S11304E097B5969587959BBD8ABD8EE0CEDEDF914C
S11304F0CF91089595B39F70892B85BB089583B7D9
S1130500836083BF87B7816087BF12BE089585B5B6
S1130510856085BD87B7806487BF14BC089582E871
S11305208FBD8BE18EBD87E893E197BD86BD0895AD
S11305308FEF8ABB11BA87BB84BB1092610082B96A
S1130540089580E487B987E886B908951F920F92C9
S11305500FB60F9211240BB60F922F933F934F9324
S11305605F936F937F938F939F93AF93BF93EF9317
S1130570FF93809130018430B1F028F4813049F048
S1130580823061F023C08630C1F090F08730D1F022
S11305901DC0A2D182E08093300118C006D584E04A
S11305A08093300113C06CD485E0809330010EC079
S11305B02CD586E08093300109C0AFD287E08093C8
S11305C0300104C042D381E08093300187B190911F
S11305D030019F708074892B87B986B1806486B995
S11305E08FE891E00197F1F700C00000FF91EF91CF
S11305F0BF91AF919F918F917F916F915F914F9137
S11306003F912F910F900BBE0F900FBE0F901F9034
S1130610189588B3816088BB089588B38E7F88BBA2
S1130620089586DF8EDF6BDF7ADF71DF21D78EDD01
S113063083EC89BF80EF8ABF8FE080936A0000D685
S11306408BB380688BBBE9DFECE1F2E085E080836B
S11306508FEF9FEF92838183948383837894C1E0A7
S1130660C093370284E1FEDE8CE692E090933E0272
S113067080933D028EEF91E0C4DE67DEC0934D02AD
S113068080914D02843051F128F4813051F0823050
S1130690E1F0F6CF883009F444C0803109F469C030
S11306A0EFCF8BB380688BBB33D68D32914044F34C
S11306B083E0EBDD89E358DD8BB38F778BBB8091CF
S11306C04D02880F80934D02DBCF55DD8823C1F2A4
S11306D080914D02880F80934D02D2CF80911F02EA
S11306E090912002E0DD8DDE94DF8FEF93ED20E327
S11306F0815090402040E1F700C0000054DE109289
S11307003C028BDF8FEF93ED20E38150904020403B
S1130710E1F700C0000080914D02880F80934D02E4
S1130720AFCF80913C02813049F410923C020DDE3F
S113073080914D02880F80934D02A2CF84E192DE16
S113074004DE67DF109236021092350280E58ADEFD
S11307502ADE63DF81E090E09093360280933502D5
S113076084E180DEF2DD80914D02880F80934D029A
S113077087CF80911C02811103C018D679DE80CF07
S1130780823019F413D684DE7BCF813019F40ED66F
S11307908FDE76CF83E079DD73CF80914A0290912A
S11307A04B028F3C9F4F1CF481E080933C020895E0
S11307B06AD59093480280934702809147029091B2
S11307C048028E972CF41092370280EF93CE08954E
S11307D08091470290914802C89734F481E0809355
S11307E0370280EE87CE08958091470290914802A7
S11307F08734910534F481E08093370280EC7ACE1B
S1130800089580914702909148028135910534F40E
S113081081E08093370280E86DCE0895809147028D
S113082090914802893791052CF481E08093370236
S113083080E060CE08951092490280913102909137
S1130840320281329340B4F481E080934902809370
S11308504D0280919701909198010196909398018F
S1130860809397010F9734F010929801109297019A
S113087027D52ECE08951F920F920FB60F921124F2
S11308800BB60F922F933F934F935F936F937F9386
S11308908F939F93AF93BF93EF93FF937EDFCBDF51
S11308A087DF8091350290913602892B11F05BD558
S11308B0D9DDFF91EF91BF91AF919F918F917F917E
S11308C06F915F914F913F912F910F900BBE0F90BD
S11308D00FBE0F901F901895CF92DF92EF92FF9268
S11308E00F931F93CF93DF9386B1806186B9809174
S11308F0190290911A020196E3E0F0E0BF010E9410
S1130900C70D9C0190931A028093190280913F01B4
S1130910909140010196BF010E94C70D9093400140
S113092080933F0144B155B1880F991FFC01ED5EDE
S1130930FD4F5183408310920F02109210021092C7
S113094011021092120282E090E090930E028093C2
S11309500D0230930C0220930B023EC0DF01AA0F5C
S1130960BB1FAA0FBB1FA35ABE4F2D913D914D91A2
S11309705C91C0910B02D0910C02DE01AA0FBB1F47
S1130980AD5EBD4F0D90BC91A02D0E94F60D00915F
S11309900F02109110022091110230911202DC0119
S11309A0CB01800F911FA21FB31F80930F0290935E
S11309B01002A0931102B0931202CE01019663E0DB
S11309C070E00E94C70D90930C0280930B02319744
S11309D0F0930E02E0930D02E0910D02F0910E02ED
S11309E0FF230CF0BBCF81E090E090930E02809344
S11309F00D020091090210910A0210930C02009357
S1130A000B0242C0FE01EE0FFF1FEE0FFF1FEB5A59
S1130A10FE4F2081318142815381E0910B02F0919C
S1130A200C02DF01AA0FBB1FAB5FBD4F0D90BC9141
S1130A30A02D0E94F60DC0900F02D0901002E090FD
S1130A401102F0901202A7019601261B370B480BE6
S1130A50590B20930F0230931002409311025093CC
S1130A601202CF01019681709078992324F40197A2
S1130A708E6F9F6F019690930C0280930B022197C7
S1130A80D0930E02C0930D02C0910D02D0910E02BC
S1130A90DD230CF0B7CF0F5F1F4F017010781123C7
S1130AA034F4015011090E6F1F6F0F5F1F4F109325
S1130AB00A0200930902C0913D01D0913E012196A2
S1130AC0C170D078DD2324F42197CE6FDF6F219697
S1130AD0D0933E01C0933D0160910F0270911002CA
S1130AE0809111029091120220E137E240E050E03F
S1130AF00E94DA0DCC0FDD1FCB5FDD4F39832883D5
S1130B003093390220933802DF91CF911F910F91D6
S1130B10FF90EF90DF90CF9008950F931F93CF93A2
S1130B20DF9386B1806186B98091030290910402BB
S1130B300196EBE0F0E0BF010E94C70D9C01909389
S1130B4004028093030280913B0190913C01019641
S1130B50BF010E94C70D90933C0180933B0144B1B7
S1130B6055B1880F991FFC01E351FE4F5183408317
S1130B701092E9011092EA011092EB011092EC013B
S1130B808AE090E09093E8018093E7013093E601D6
S1130B902093E5013DC0DF01AA0FBB1FAA0FBB1FB5
S1130BA0A759BE4F2D913D914D915C91C091E501A6
S1130BB0D091E601DE01AA0FBB1FA351BE4F0D90D9
S1130BC0BC91A02D0E94F60D0091E9011091EA015B
S1130BD02091EB013091EC01DC01CB01800F911FDE
S1130BE0A21FB31F8093E9019093EA01A093EB0144
S1130BF0B093EC01CE0101966BE070E0C8D79093FE
S1130C00E6018093E5013197F093E801E093E70171
S1130C10E091E701F091E801FF230CF0BCCF609173
S1130C20E9017091EA018091EB019091EC0120E1DE
S1130C3037E240E050E0BED73093320220933102D5
S1130C40DF91CF911F910F910895CF92DF92EF9290
S1130C50FF920F931F93CF93DF9386B1806186B980
S1130C608091E3019091E4010196E3E0F0E0BF019B
S1130C708ED79C019093E4018093E3018091390124
S1130C8090913A010196BF0182D790933A018093E3
S1130C90390144B155B1880F991FFC01E352FE4F4D
S1130CA0518340831092D9011092DA011092DB0132
S1130CB01092DC0182E090E09093D8018093D701F8
S1130CC03093D6012093D5013CC0DF01AA0FBB1F8E
S1130CD0AA0FBB1FA35ABE4F2D913D914D915C911C
S1130CE0C091D501D091D601DE01AA0FBB1FA3523A
S1130CF0BE4F0D90BC91A02D79D70091D9011091D0
S1130D00DA012091DB013091DC01DC01CB01800FA1
S1130D10911FA21FB31F8093D9019093DA01A0936E
S1130D20DB01B093DC01CE01019663E070E02FD7C4
S1130D309093D6018093D5013197F093D801E09335
S1130D40D701E091D701F091D801FF230CF0BDCF7A
S1130D5081E090E09093D8018093D7010091D30172
S1130D601091D4011093D6010093D50141C0FE0126
S1130D70EE0FFF1FEE0FFF1FEB5AFE4F2081318154
S1130D8042815381E091D501F091D601DF01AA0F90
S1130D90BB1FA153BE4F0D90BC91A02D27D7C0906F
S1130DA0D901D090DA01E090DB01F090DC01A701D9
S1130DB09601261B370B480B590B2093D90130930E
S1130DC0DA014093DB015093DC01CF01019681707D
S1130DD09078992324F401978E6F9F6F01969093D6
S1130DE0D6018093D5012197D093D801C093D70120
S1130DF0C091D701D091D801DD230CF0B8CF0F5F9B
S1130E001F4F01701078112334F4015011090E6F33
S1130E101F6F0F5F1F4F1093D4010093D301C09134
S1130E203701D09138012196C170D078DD2324F4A4
S1130E302197CE6FDF6F2196D0933801C09337018D
S1130E406091D9017091DA018091DB019091DC010C
S1130E5020E137E240E050E0ADD6CC0FDD1FC153B6
S1130E60DE4F398328833093400220933F02DF9181
S1130E70CF911F910F91FF90EF90DF90CF90089545
S1130E800F931F93CF93DF9386B1806186B98091CE
S1130E90CD019091CE010196EBE0F0E0BF0177D651
S1130EA09C019093CE018093CD0180913501909166
S1130EB036010196BF016BD69093360180933501BC
S1130EC044B155B1880F991FFC01E954FE4F518379
S1130ED040831092B3011092B4011092B5011092A4
S1130EE0B6018AE090E09093B2018093B10130930F
S1130EF0B0012093AF013CC0DF01AA0FBB1FAA0FB2
S1130F00BB1FA759BE4F2D913D914D915C91C0914E
S1130F10AF01D091B001DE01AA0FBB1FA954BE4F8F
S1130F200D90BC91A02D62D60091B3011091B40133
S1130F302091B5013091B601DC01CB01800F911FE6
S1130F40A21FB31F8093B3019093B401A093B50182
S1130F50B093B601CE0101966BE070E018D6909381
S1130F60B0018093AF013197F093B201E093B101E6
S1130F70E091B101F091B201FF230CF0BDCF60917B
S1130F80B3017091B4018091B5019091B60120E153
S1130F9037E240E050E00ED63093440220934302FF
S1130FA0DF91CF911F910F910895CF92DF92EF922D
S1130FB0FF9286B1806186B960912F0270913002F0
S1130FC0072E000C880B990B66D32CE33FED4FE4FE
S1130FD05FE35AD46B017C0164B175B180E090E0A9
S1130FE058D322E133E840E45EE34ED49B01AC01E4
S1130FF0C701B6014DD21CD37093300260932F0207
S1131000FF90EF90DF90CF900895CF92DF92EF9210
S1131010FF920F931F93CF93DF9386B1806186B9BC
S11310208091AD019091AE010196E3E0F0E0BF0143
S1131030AED59C019093AE018093AD0180913301B4
S1131040909134010196BF01A2D59093340180930D
S1131050330144B155B1880F991FFC01E955FE4F86
S1131060518340831092A3011092A4011092A50110
S11310701092A60182E090E09093A2018093A101D6
S11310803093A00120939F013CC0DF01AA0FBB1F36
S1131090AA0FBB1FA75BBE4F2D913D914D915C9153
S11310A0C0919F01D091A001DE01AA0FBB1FA955D9
S11310B0BE4F0D90BC91A02D99D50091A301109124
S11310C0A4012091A5013091A601DC01CB01800F80
S11310D0911FA21FB31F8093A3019093A401A09317
S11310E0A501B093A601CE01019663E070E04FD54F
S11310F09093A00180939F013197F093A201E09314
S1131100A101E091A101F091A201FF230CF0BDCF58
S113111081E090E09093A2018093A10100919D0150
S113112010919E011093A00100939F0141C0FE0104
S1131130EE0FFF1FEE0FFF1FEF5BFE4F208131818B
S113114042815381E0919F01F091A001DF01AA0F38
S1131150BB1FA756BE4F0D90BC91A02D47D5C09084
S1131160A301D090A401E090A501F090A601A701ED
S11311709601261B370B480B590B2093A301309380
S1131180A4014093A5015093A601CF01019681705B
S11311909078992324F401978E6F9F6F0196909312
S11311A0A00180939F012197D093A201C093A10134
S11311B0C091A101D091A201DD230CF0B8CF0F5F43
S11311C01F4F01701078112334F4015011090E6F70
S11311D01F6F0F5F1F4F10939E0100939D01C091DD
S11311E03101D09132012196C170D078DD2324F4ED
S11311F02197CE6FDF6F2196D0933201C0933101D6
S11312006091A3017091A4018091A5019091A60120
S113121020E137E240E050E0CDD4CC0FDD1FC756CB
S1131220DE4F3983288330934B0220934A02DF91A7
S1131230CF911F910F91FF90EF90DF90CF90089581
S11312401092440210924302109239021092380212
S11312501092300210922F0281E090E090933602B7
S11312608093350210924B0210924A0210923C0273
S11312701092400210923F021092320210923102F8
S113128010924902089560913F0270914002072E26
S1131290000C880B990BFFD12FE93BEA4DE25EE38A
S11312A0F6D09B01AC0168E471EE8CED91E458D169
S11312B020E030E04AE754E4E7D2BAD1CB01089504
S11312C08091310290913202843F21E092078CF4A4
S11312D0803921E0920784F48E3521E092077CF472
S11312E0863E91057CF4843B91057CF086E990E090
S11312F0089588EC90E008958EEB90E0089584EBD7
S113130090E008958AEA90E0089584E690E00895D4
S113131060914302709144026B30710508F180E0E2
S113132090E0B7D120E030E040EA50E4ADD220E0D4
S113133030E040E85AE3A8D22CE732EF40EB5EE31A
S1131340A6D027E339E841E35FE30AD19B01AC016E
S113135066EB73EF8DE290E4FAD26AD1CB01089583
S113136080E090E0089560912F027091300261391D
S113137081E07807BCF464367105B4F064567109F1
S1131380072E000C880B990B86D12CEB3BEB4BEB17
S11313905EEB7AD220E030E042E053E479D04DD1E4
S11313A0862F089584E1089582E80895CF92DF920C
S11313B0EF92FF926091380270913902072E000C6F
S11313C0880B990B68D19B01AC0168E47BEB82E943
S11313D09AE4C6D020E030EE42E955E458D014D265
S11313E021ED3BE849E251E452D02DEC3CEC4CE4D5
S11313F05FE3B6D09B01AC0160E070E080E89FE35E
S113140046D09B01AC0160E070E080E291E49FD2A1
S11314106B017C0120E030E04AEF54E4ECD1181673
S1131420ECF020E030E048EC52E4C701B60194D07F
S11314308823BCF020E030E048E453E4C701B6015F
S113144026D02FEA31EA4CEB5FE31ED220E030E0F5
S113145048EC52E41DD0ECD0CB0105C088EB9BE0F6
S113146002C088EC90E0FF90EF90DF90CF90089559
S113147087E689B9109290001BB888E18AB987E899
S11314808093950008955D9BFECF8CB908955058C4
S1131490BB27AA270ED075C166D130F06BD120F0DE
S11314A031F49F3F11F41EF45BC10EF4E095E7FBA9
S11314B051C1E92F77D180F3BA1762077307840704
S11314C0950718F071F49EF58FC10EF4E0950B2E7C
S11314D0BA2FA02D0B01B90190010C01CA01A00182
S11314E01124FF27591B99F0593F50F4503E68F1DD
S11314F01A16F040A22F232F342F4427585FF3CF1E
S1131500469537952795A795F0405395C9F77EF4EE
S11315101F16BA0B620B730B840BBAF09150A1F037
S1131520FF0FBB1F661F771F881FC2F70EC0BA0FBD
S1131530621F731F841F48F4879577956795B79545
S1131540F7959E3F08F0B3CF9395880F08F099273D
S1131550EE0F979587950895D9D008F481E0089502
S11315600CD00FC107D140F0FED030F021F45F3F22
S113157019F0F0C0511139C1F3C014D198F3992373
S1131580C9F35523B1F3951B550BBB27AA27621743
S11315907307840738F09F5F5F4F220F331F441F88
S11315A0AA1FA9F333D00E2E3AF0E0E830D09150C0
S11315B05040E695001CCAF729D0FE2F27D0660FAD
S11315C0771F881FBB1F261737074807AB07B0E8EC
S11315D009F0BB0B802DBF01FF2793585F4F2AF002
S11315E09E3F510568F0B6C000C15F3FECF3983EE2
S11315F0DCF3869577956795B795F7959F5FC9F75F
S1131600880F911D9695879597F90895E1E0660FE7
S1131610771F881FBB1F621773078407BA0720F060
S1131620621B730B840BBA0BEE1F88F7E0950895C9
S113163004D06894B111D9C00895BCD088F09F57E4
S113164090F0B92F9927B751A0F0D1F0660F771F0A
S1131650881F991F1AF0BA95C9F712C0B13081F0EA
S1131660C3D0B1E00895C0C0672F782F8827B85F32
S113167039F0B93FCCF3869577956795B395D9F74B
S11316803EF490958095709561957F4F8F4F9F4F55
S11316900895E89409C097FB3EF490958095709561
S11316A061957F4F8F4F9F4F9923A9F0F92F96E9AA
S11316B0BB279395F695879577956795B795F1111F
S11316C0F8CFFAF4BB0F11F460FF1BC06F5F7F4FBC
S11316D08F4F9F4F16C0882311F096E911C07723CE
S11316E021F09EE8872F762F05C0662371F096E8D7
S11316F0862F70E060E02AF09A95660F771F881FA6
S1131700DAF7880F9695879597F90895990F000849
S1131710550FAA0BE0E8FEEF16161706E807F907BF
S1131720C0F012161306E407F50798F0621B730B5A
S1131730840B950B39F40A2661F0232B242B252BDB
S113174021F408950A2609F4A140A6958FEF811D7E
S1131750811D089597F99F6780E870E060E008951F
S11317609FEF80EC089500240A94161617061806B5
S11317700906089500240A94121613061406050691
S11317800895092E0394000C11F4882352F0BB0F22
S113179040F4BF2B11F460FF04C06F5F7F4F8F4F85
S11317A09F4F089557FD9058440F551F59F05F3FC0
S11317B071F04795880F97FB991F61F09F3F79F06F
S11317C087950895121613061406551FF2CF4695F1
S11317D0F1DF08C0161617061806991FF1CF869573
S11317E07105610508940895E894BB276627772757
S11317F0CB0197F908958ADF08F48FEF08950EF06E
S113180023C1AECF6894A6CFD5DFC8F39923D1F313
S1131810C6F3DF93CF931F930F93FF92C92FDD2756
S113182088232AF02197660F771F881FDAF720E0B4
S113183030E040E85FEB9FE3883920F0803E30F0F1
S113184021968F7725DEECE8F0E003C021DEE9EB9A
S1131850F0E008D18B01BE01EC01FB2E6F5771093A
S11318607595771F880B990B16DF28E132E741E362
S11318705FE316D0AF2D9801AE01FF900F911F9139
S1131880CF91DF9116DE7DCF0BD07BCF6CDF28F0BC
S113189071DF18F0952309F05DCF62CF1124A5CF35
S11318A081DFA0F3959FD1F3950F50E0551F629F00
S11318B0F001729FBB27F00DB11D639FAA27F00DA5
S11318C0B11DAA1F649F6627B00DA11D661F829FCC
S11318D02227B00DA11D621F739FB00DA11D621FB1
S11318E0839FA00D611D221F749F3327A00D611DCE
S11318F0231F849F600D211D822F762F6A2F1124B0
S11319009F5750408AF0E1F088234AF0EE0FFF1F02
S1131910BB1F661F771F881F91505040A9F79E3F39
S1131920510570F017CF61CF5F3FECF3983EDCF3C5
S1131930869577956795B795F795E7959F5FC1F776
S1131940FE2B880F911D9695879597F90895FA01B6
S1131950EE0FFF1F30962105310599F161157105D0
S113196061F48038BFE39B0749F16894903881059E
S113197061F08038BFEF9B0741F0992342F5FF3FA8
S1131980E1053105210511F1E8940894E795D901A1
S1131990AA2329F4AB2FBE2FF85FD0F310C0FF5F4A
S11319A070F4A695E0F7F73950F019F0FF3A38F4DF
S11319B09F779F930CD00F9007FC905808953EF0AA
S11319C0CFCE60E070E080E89FE308954FE79F7713
S11319D05F934F933F932F9317DF2F913F914F9135
S11319E05F9152DF05C019F40EF0B4CEFDCEB8CE2F
S11319F0E1DEC8F39638C0F707F80F92E8942BE3BA
S1131A003AEA48EB5FE74EDF0F920F920F924DB721
S1131A105EB70F9289D0E6EEF0E024D04F915F914B
S1131A20EF91FF91E595EE1FFF1F49F0FE57E06827
S1131A304427EE0F441FFA95E1F74195550B40D02A
S1131A400F9007FE34C008959F3F31F0915020F469
S1131A50879577956795B795880F911D9695879586
S1131A6097F90895DF93CF931F930F93FF92EF920B
S1131A70DF927B018C01689405C0DA2EEF0110DF40
S1131A80FE01E894A5912591359145915591AEF3C8
S1131A90EF010FDDFE019701A801DA9479F7DF90D9
S1131AA0EF90FF900F911F91CF91DF9108959B01CB
S1131AB0AC0160E070E080E89FE352CD4BCEC4CF30
S1131AC079DEE8F39923D9F3940F511DBBF39150B8
S1131AD0504094F059F0882332F0660F771F881F26
S1131AE091505040C1F79E3F510544F7880F911D16
S1131AF09695879597F908955F3FACF0983E9CF0D2
S1131B00BB27869577956795B79508F4B16093954B
S1131B10C1F7BB0F58F711F460FFE8CF6F5F7F4F39
S1131B208F4F9F4FE3CF61CEFA01DC01AA0FBB1F99
S1131B309B01AC01BF5728F4222733274427507850
S1131B401FC0B75188F4AB2F0024469537952795CD
S1131B50011CA395D2F3002069F0220F331F441F08
S1131B60B395DAF30DD093CC61307105A0E88A0700
S1131B70B94630F49B01AC01662777278827907813
S1131B80309621F02083318342835383089597FB59
S1131B90072E16F4009406D077FD08D02DD007FC4C
S1131BA005D03EF4909581959F4F08957095619569
S1131BB07F4F0895052E97FB16F400940FD057FD20
S1131BC005D02ED007FC02D046F408C050954095AD
S1131BD0309521953F4F4F4F5F4F089590958095D5
S1131BE0709561957F4F8F4F9F4F0895B7FF3AC00F
S1131BF039D0821B930B0895AA1BBB1B51E107C06C
S1131C00AA1FBB1FA617B70710F0A61BB70B881F88
S1131C10991F5A95A9F780959095BC01CD01089517
S1131C20A1E21A2EAA1BBB1BFD010DC0AA1FBB1FDC
S1131C30EE1FFF1FA217B307E407F50720F0A21B4E
S1131C40B30BE40BF50B661F771F881F991F1A94BB
S1131C5069F760957095809590959B01AC01BD01E5
S1131C60CF01089509D0A59F900DB49F900DA49F16
S1131C70800D911D11240895A29FB001B39FC0014E
S1131C80A39F700D811D1124911DB29F700D811DA4
S10D1C901124911D0895F894FFCF6C
S1131C9A220136014A015E01720186019A01AE01EE
S1131CAAC201D601EA01FE010E0013001C00300035
S1131CBA3A004D0051005E00640072007A0085000B
S1131CCA01010002000A00010002000A00010002E8
S1131CDA00DF2200005A0C000023040000BBF7FFB7
S1131CEAFF230400007CBCFFFFBB1D000052000060
S1131CFA00A4000000520000008F0000002F010021
S1131D0A00D3020000DD0400008606000029070053
S1131D1A0086060000DD040000D30200002F010043
S1091D2A008F0000000020
S9030000FC
