S01700004763634170706C69636174696F6E312E737265635B
S113000045C0000060C000005EC000005CC000008D
S11300105AC0000058C0000056C0000054C0000080
S113002004C1000050C000004EC000004CC00000DD
S11300304AC0000048C0000046C0000044C00000A0
S11300403CC2000040C000003EC000003CC00000B4
S11300503AC0000038C0000036C0000034C00000C0
S113006032C0000030C000002EC000002CC00000D0
S11300702AC0000028C0000026C0000024C00000E0
S113008022C0000020C000001EC0000011241FBEBA
S1130090CFEFD0E1DEBFCDBF11E0A0E0B1E0E8E7F3
S11300A0F8E000E00BBF02C007900D92A230B10748
S11300B0D9F721E0A2E0B1E001C01D92A433B20758
S11300C0E1F73FD1D7C39CCF10929B0088E1809386
S11300D09A0086E080939D001092980087E68093B2
S11300E09900089590919B0095FFFCCF80939C000C
S11300F0089580919B0088230CF087C080919C0018
S113010080930401809102018230B1F08330B1F117
S1130110813009F054C0809104018E3239F4109278
S1130120020180910401DEDF80E0089580910401E2
S113013080538093050143C0809104018E3239F4C9
S11301401092020180910401CDDF80E00895E5E082
S1130150F1E0818192819C01220F331F880F991F46
S1130160880F991F880F991F820F931F20910401F4
S1130170820F911DC0979283818321C080910401D5
S11301808E3239F41092020180910401ABDF81E0D8
S11301900895E5E0F1E0838194819C01220F331FEF
S11301A0880F991F880F991F880F991F820F931F1B
S11301B020910401820F911DC097948383838091C1
S11301C00401833231F41092050181E0809302012D
S11301D017C080910401813241F4109207011092FA
S11301E0060182E0809302010BC0809104018A32EF
S11301F039F4109209011092080183E080930201FE
S1130200809104016FDF80E0089580E0089595B344
S1130210907F892B85BB2FEF81EE94E021508040A5
S11302209040E1F700C0000008951F920F920FB6AE
S11302300F9211240F900FBE0F901F90189583B743
S1130240876083BF87B7816087BF12BE089582E845
S11302508FBD8BE18EBD87E893E197BD86BD089580
S11302608FEF8ABB11BA87BB84BB1092610012B8AE
S1130270089580E487B987E886B9089585B38F77B0
S113028085BB089585B3806885BB08958091050179
S1130290823099F028F4882341F0813051F018C05D
S11302A0833079F0843089F013C084E080930301B3
S11302B00FC081E0809303010BC082E080930301AF
S11302C007C083E08093030103C084E080930301AB
S11302D0809130019091310183BD0895CF93DF93D4
S11302E0EC0183E090E0D2DF87E893E197BD86BD1F
S11302F0DBBDCABD89E08BDFDF91CF910895CF9339
S1130300DF93EC0183E090E0C1DF87E893E197BDE0
S113031086BDDBBDCABD8DE07ADFDF91CF91089544
S1130320CF93DF93EC0183E090E0B0DF87E893E1C3
S113033097BD86BDDBBDCABD81E069DFDF91CF918A
S113034008958EDF96DF7BDF82DFBEDE80EC89BF1F
S113035080EF8ABFB9D196DFE5E0F1E085E08083E4
S11303608FEF9FEF9283818394838383789481E0DA
S11303708093200184E178D287E791E048D2F3D1D9
S113038080910101843039F128F4813049F08230C0
S1130390C9F0F6CF8830B1F1803109F45BC0F0CFF9
S11303A080912C0190912D018538934048F383E08E
S11303B02EDF64DF80E396DE80910101880F809355
S11303C00101DECF96DE8823D9F280910101880FE6
S11303D080930101D5CF87E791E019D24FDFEDD1AA
S11303E0109225014FDF8FEF97EA21E6815090406C
S11303F02040E1F700C0000080910101880F809344
S11304000101BECF80912501813049F4109225016C
S1130410AAD180910101880F80930101B1CF84E1B9
S113042023D2A1D12BDF10921F0110921E0180E56F
S11304301BD2C3D127DF81E090E090931F0180930A
S11304401E0184E111D28FD180910101880F809324
S1130450010196CF80910501811104C084EF91E0E0
S11304603DDF0EC0823021F484EF91E048DF08C004
S1130470813021F484EF91E053DF02C083E0C7DED2
S113048081E0809301017CCF80913201909133010E
S11304908538934018F481E0809325010895809174
S11304A02801909129018930924018F0109220017E
S11304B0089581E08093200108951F920F920FB652
S11304C00F9211240BB60F922F933F934F935F9388
S11304D06F937F938F939F93AF93BF93EF93FF9308
S11304E0809100018430B1F028F4813049F08230E9
S11304F061F025C08630C9F090F08730D9F01FC074
S113050089D082E0809300011AC0C0D084E0809337
S1130510000115C0ACD085E08093000110C0C5D0A7
S1130520B3DF86E0809300010AC083D087E0809324
S1130530000105C08DD0B3DF81E08093000187B155
S1130540909100019F708074892B87B9809121015B
S1130550909122018536910520F08BB38E7F8BBB61
S113056003C08BB381608BBB8091180190911901FA
S1130570893C910520F08BB38D7F8BBB03C08BB37B
S113058082608BBB80912C0190912D018538934022
S113059020F08BB38B7F8BBB03C08BB384608BBB8E
S11305A080912501882321F08BB3877F8BBB03C007
S11305B08BB388608BBB80911A0190911B018536A7
S11305C0910520F08BB38F7E8BBB03C08BB380610E
S11305D08BBB80912801909129018930924020F0B1
S11305E08BB38F7B8BBB03C08BB380648BBBFF91BE
S11305F0EF91BF91AF919F918F917F916F915F9197
S11306004F913F912F910F900BBE0F900FBE0F9003
S11306101F90189586B1806486B9349BFECF86B14D
S1130620806186B984B195B19093220180932101B0
S1130630089586B1806486B9349BFECF86B180610B
S113064086B984B195B190931B0180931A010895E2
S113065086B1806486B9349BFECF86B1806186B949
S113066084B195B19093290180932801089586B1AE
S1130670806486B9349BFECF86B1806186B984B12B
S113068095B190932D0180932C01089586B18064D7
S113069086B9349BFECF86B1806186B984B195B1A9
S11306A09093190180931801089586B1806486B9E6
S11306B0349BFECF86B1806186B984B195B19093A5
S11306C0330180933201089510922D0110922C0170
S11306D01092220110922101109219011092180116
S11306E010921F0110921E011092330110923201D8
S11306F010922501109229011092280110921B01D9
S113070010921A01089540E050E021C02091200188
S11307102223B9F04F5F5F4F20912A0130912B01C2
S11307204217530771F420912E0130912F01820F4B
S1130730931F90932701809326019BBD8ABD40E0BF
S113074050E08FE891E00197F1F700C0000080913C
S113075026019091270120911C0130911D018217DF
S11307609307A1F6089580912601909127019BBDDE
S11307708ABD82E04CDD82E04ADD82E890E090931D
S11307801D0180931C012091260130912701809145
S11307901C0190911D012817390738F08FEF9FEF46
S11307A090932F0180932E0106C081E090E09093F6
S11307B02F0180932E01A7CF089580912601909157
S11307C027019BBD8ABD82E022DD82E020DD8CE62C
S11307D092E090931D0180931C0120912601309199
S11307E0270180911C0190911D012817390738F0C9
S11307F08FEF9FEF90932F0180932E0106C081E02D
S113080090E090932F0180932E017DCF0895CF9394
S1130810DF93EC0180912601909127019BBD8ABD55
S113082082E0F5DC82E0F3DCD0931D01C0931C016F
S1130830209126013091270180911C0190911D0186
S11308402817390738F08FEF9FEF90932F0180938B
S11308502E0106C081E090E090932F0180932E0139
S113086052DFDF91CF91089590E090932B01809314
S10B08702A010895F894FFCF5A
S1050878010178
S9030000FC
