S01700004763634170706C69636174696F6E312E737265635B
S113000045C0000060C000005EC000005CC000008D
S11300105AC0000058C0000056C0000054C0000080
S113002052C0000050C000004EC000004CC0000090
S11300304AC0000048C0000046C0000044C00000A0
S113004043C0000040C000003EC000003CC00000AF
S11300503AC0000038C0000036C0000034C00000C0
S113006032C0000030C000002EC000002CC00000D0
S11300702AC0000028C0000026C0000024C00000E0
S113008022C0000020C000001EC0000011241FBEBA
S1130090CFEFD0E1DEBFCDBF11E0A0E0B1E0ECECEA
S11300A0F3E000E00BBF02C007900D92A230B1074D
S11300B0D9F721E0A2E0B1E001C01D92AA32B20753
S11300C0E1F740D181C19CCF1F920F920FB60F92DE
S11300D011248F9380910301811103C085B315BA54
S11300E003C085B3806885BB8F910F900FBE0F90BE
S11300F01F90189510929B0088E180939A0086E0E7
S113010080939D001092980087E68093990008954B
S113011082E88FBD8BE18EBD87E893E197BD86BDF4
S113012008958FEF8ABB11BA87BB80E884BB08951A
S113013090919B0095FFFCCF80939C000895809143
S11301409B0088230CF086C080919C00809304015E
S1130150809102018230A9F08330A9F1813009F045
S113016053C0809104018E3239F4109202018091BF
S11301700401DEDF80E008958091040180930A0188
S113018043C0809104018E3239F4109202018091AF
S11301900401CEDF80E00895EAE0F1E081819281FC
S11301A09C01220F331F880F991F880F991F880FF6
S11301B0991F820F931F20910401820F911DC097F4
S11301C09283818321C0809104018E3239F410928C
S11301D0020180910401ACDF81E00895EAE0F1E0DE
S11301E0838194819C01220F331F880F991F880FEC
S11301F0991F880F991F820F931F20910401820F6A
S1130200911DC0979483838380910401833231F4D8
S113021010920A0181E08093020117C080910401C9
S1130220813241F410920C0110920B0182E0809310
S113023002010BC0809104018A3239F410920E013C
S113024010920D0183E0809302018091040170DF1C
S113025080E0089580E00895909314018093130141
S11302609BBD8ABD089580E090E01CC0019640913A
S11302701601509117018417950771F480911901A3
S113028090911A01280F391F309314012093130100
S11302903BBD2ABD80E090E0EFE8F1E03197F1F753
S11302A000C0000020911301309114014091080115
S11302B0509109012417350721F0409100014111A3
S11302C0D5CF08958CE692E09093090180930801BC
S11302D0209113013091140180910801909109013A
S11302E02817390738F08FEF9FEF90931A01809306
S11302F0190106C081E090E090931A0180931901DE
S1130300B2CF089582E890E09093090180930801A8
S113031020911301309114018091080190910901F9
S11303202817390738F08FEF9FEF90931A018093C5
S1130330190106C081E090E090931A01809319019D
S113034092CF0895F894EDDEE3DED4DE789485B39D
S1130350806885BB84E190E0909317018093160137
S113036081E08093000187E791E076DF8FE39CE9E9
S11303700197F1F700C00000E2DE8823A9F0809124
S11303800B0190910C018B37910521F488EC90E0DE
S113039063DF0AC08134914021F484EF91E05CDF93
S11303A003C087E791E058DF80B38370813019F090
S11303B0823029F0DBCF85B315BA84DFD7CF85B37C
S10F03C0806885BB9FDFD2CFF894FFCF8C
S10503CC01002A
S9030000FC
