:1000000045C0000060C000005EC000005CC0000091
:100010005AC0000058C0000056C0000054C0000084
:1000200052C0000050C000004EC000004CC0000094
:100030004AC0000048C0000046C0000044C00000A4
:1000400057C0000040C000003EC000003CC000009F
:100050003AC0000039C0000036C0000034C00000C3
:1000600032C0000030C000002EC000002CC00000D4
:100070002AC0000028C0000026C0000024C00000E4
:1000800022C0000020C000001EC0000011241FBEBE
:10009000CFEFD0E1DEBFCDBF11E0A0E0B1E0EEE0F8
:1000A000F2E000E00BBF02C007900D92A030B10754
:1000B000D9F721E0A0E0B1E001C01D92AB31B20759
:1000C000E1F769D0A2C09CCF1F920F920FB60F929A
:1000D00011248F939F9384B195B1909303018093E2
:1000E00002019F918F910F900FBE0F901F90189556
:1000F0001F920F920FB60F9211240BB60F928F938F
:100100009F93EF93FF93CF93DF9300D000D0CDB7B1
:10011000DEB784E0898385E08A8386E08B8387E08D
:100120008C8380910001E1E0F0E0EC0FFD1FE80F0F
:10013000F11D80818093010197B180910101987F29
:100140008770892B87B986B1806486B98091000158
:100150008F5F80930001843010F0109200010F90A7
:100160000F900F900F90DF91CF91FF91EF919F91A2
:100170008F910F900BBE0F900FBE0F901F90189590
:1001800080E487B98FE886B9089585E083BF81E070
:1001900087BF12BE0895F4DFF8DF789480910101E3
:1001A0008530C1F028F4833041F0843061F026C0FE
:1001B0008630B9F08730E1F021C080910201909142
:1001C00003018093060180910201909103018093C5
:1001D000150114C0809102019091030180931A01CE
:1001E0000DC080910201909103018093070106C028
:1001F0008091020190910301809312018FE39CE9A9
:0E0200000197F1F700C00000C9CFF894FFCFBE
:00000001FF
