S01700004763634170706C69636174696F6E312E737265635B
S113000045C0000060C000005EC000005CC000008D
S11300105AC0000058C0000056C0000054C0000080
S113002052C0000050C000004EC000004CC0000090
S11300304AC0000048C0000046C0000044C00000A0
S113004043C0000040C000003EC000003CC00000AF
S11300503AC0000038C0000036C0000034C00000C0
S113006032C0000030C000002EC000002CC00000D0
S11300702AC0000028C0000026C0000024C00000E0
S113008022C0000020C000001EC0000011241FBEBA
S1130090CFEFD0E1DEBFCDBF11E0A0E0B1E0E0E4FE
S11300A0F7E000E00BBF02C007900D92A230B10749
S11300B0D9F721E0A2E0B1E001C01D92A532B20758
S11300C0E1F775D03BC39CCF1F920F920FB60F92EE
S11300D011240BB60F922F933F934F935F936F931B
S11300E07F938F939F93AF93BF93EF93FF938091ED
S11300F000018430D9F028F4813051F0823079F055
S11301002EC0803109F1803231F1883041F515C0BB
S113011004D180910001880F8093000120C012D186
S113012080910001880F8093000119C035D180911E
S11301300001880F8093000112C019D18091000141
S1130140880F809300010BC051D180910001880F6A
S11301508093000104C035D181E08093000197B100
S113016080910001907F8F70892B87B986B180645C
S113017086B9FF91EF91BF91AF919F918F917F913C
S11301806F915F914F913F912F910F900BBE0F9004
S11301900FBE0F901F90189580E487B98FE886B939
S11301A0089585E083BF81E087BF12BE0895CF9391
S11301B0DF931F92CDB7DEB71FEF1983EDDFF1DFB9
S11301C02AD178941ABB1092610080911601853669
S11301D020F089818E7F898303C08981816089832E
S11301E080911101893C20F089818D7F898303C02E
S11301F089818260898380911F01893C20F08981F3
S11302008C7F898303C089818360898380911C01E9
S1130210853620F089818B7F898303C0898184603E
S1130220898380912401853620F089818A7F89839E
S113023003C089818560898380911001853618F017
S11302408FE7898302C08FEF898389818BBB2FEF6E
S113025080E792E0215080409040E1F700C0000028
S1130260B4CF8F929F92AF92BF92CF92DF92EF92D0
S1130270FF92CF93DF93EC0169017A0180E090E073
S11302806CD1A7019601F7D14B015C01A70196013E
S113029060E070E080E89FE3CFD06B017C01BE0199
S11302A080E090E05AD1A7019601E5D19B01AC0111
S11302B0C501B401C2D025D1CB01DF91CF91FF900C
S11302C0EF90DF90CF90BF90AF909F908F90089564
S11302D0CF92DF92EF92FF92CF93DF93EC0169010B
S11302E07A01680F791F80E090E037D1A701960169
S11302F0C2D16B017C01BE0180E090E02ED19B0154
S1130300AC01C701B60198D0FCD0CB01DF91CF91ED
S1130310FF90EF90DF90CF90089564B175B12DEC0C
S11303203CEC4CEC5DE380910C0190910D0199DF64
S1130330809316018091160190E090930D018093B3
S11303400C01089564B175B12DEC3CEC4CEC5DE30B
S113035080910A0190910B0184DF809311018091B7
S1130360110190E090930B0180930A01089564B108
S113037075B12DEC3CEC4CEC5DE38091080190915F
S113038009016FDF80931C0180911C0190E0909320
S1130390090180930801089564B175B12DEC3CEC1A
S11303A04CEC5DE3809106019091070191DF80930D
S11303B01F0180911F0190E0909307018093060133
S11303C0089564B175B12DEC3CEC4CEC5DE3809187
S11303D004019091050145DF809310018091100183
S11303E090E09093050180930401089564B175B180
S11303F02DEC3CEC4CEC5DE3809102019091030107
S113040067DF809324018091240190E0909303019D
S113041080930201089510921F0110921601109208
S113042010011092140110922401109219011092DB
S11304301C011092110108955058BB27AA270ED011
S1130440E0C0D1D030F0D6D020F031F49F3F11F489
S11304501EF4C6C00EF4E095E7FBBCC0E92FE2D061
S113046080F3BA17620773078407950718F071F4CD
S11304709EF5FAC00EF4E0950B2EBA2FA02D0B01B9
S1130480B90190010C01CA01A0011124FF27591BD5
S113049099F0593F50F4503E68F11A16F040A22FDB
S11304A0232F342F4427585FF3CF4695379527954C
S11304B0A795F0405395C9F77EF41F16BA0B620B4B
S11304C0730B840BBAF09150A1F0FF0FBB1F661F92
S11304D0771F881FC2F70EC0BA0F621F731F841FD5
S11304E048F4879577956795B795F7959E3F08F0FB
S11304F0B3CF9395880F08F09927EE0F97958795BA
S1130500089598D088F09F5790F0B92F9927B75144
S1130510A0F0D1F0660F771F881F991F1AF0BA95C3
S1130520C9F712C0B13081F09FD0B1E008959CC0EA
S1130530672F782F8827B85F39F0B93FCCF38695B9
S113054077956795B395D9F73EF490958095709516
S113055061957F4F8F4F9F4F0895E89409C097FB93
S11305603EF490958095709561957F4F8F4F9F4F86
S11305709923A9F0F92F96E9BB279395F6958795CA
S113058077956795B795F111F8CFFAF4BB0F11F48D
S113059060FF1BC06F5F7F4F8F4F9F4F16C0882334
S11305A011F096E911C0772321F09EE8872F762F6A
S11305B005C0662371F096E8862F70E060E02AF0AB
S11305C09A95660F771F881FDAF7880F9695879597
S11305D097F9089597F99F6780E870E060E00895BF
S11305E09FEF80EC089500240A9416161706180647
S11305F00906089500240A94121613061406050623
S11306000895092E0394000C11F4882352F0BB0FB3
S113061040F4BF2B11F460FF04C06F5F7F4F8F4F16
S11306209F4F089557FD9058440F551F59F05F3F51
S113063071F04795880F97FB991F61F09F3F79F000
S113064087950895121613061406551FF2CF469582
S1130650F1DF08C0161617061806991FF1CF869504
S11306607105610508940895E894BB2766277727E8
S1130670CB0197F908950BD0C4CFB5DF28F0BADFCA
S113068018F0952309F0A6CFABCF1124EECFCADF23
S1130690A0F3959FD1F3950F50E0551F629FF00191
S11306A0729FBB27F00DB11D639FAA27F00DB11DEA
S11306B0AA1F649F6627B00DA11D661F829F222773
S11306C0B00DA11D621F739FB00DA11D621F839FFA
S11306D0A00D611D221F749F3327A00D611D231FD0
S11306E0849F600D211D822F762F6A2F11249F571E
S11306F050408AF0E1F088234AF0EE0FFF1FBB1F41
S1130700661F771F881F91505040A9F79E3F5105DF
S113071070F060CFAACF5F3FECF3983EDCF3869590
S113072077956795B795F795E7959F5FC1F7FE2B8A
S1130730880F911D9695879597F90895F894FFCFA2
S10507400100B2
S9030000FC
