S01700004763634170706C69636174696F6E312E737265635B
S113000086C00000A0C1000094C100009DC0000093
S11300109BC0000099C0000097C0000095C000007C
S113002093C0000091C000008FC000008DC000008C
S11300308BC0000089C0000087C0000085C000009C
S11300402FC2000081C000007FC000007DC00000FE
S11300507BC0000079C0000077C0000075C00000BC
S113006073C0000071C000006FC000006DC00000CC
S11300706BC0000069C0000067C0000065C00000DC
S113008063C0000061C000005FC000000800000001
S1130090BE922449123EABAAAA2ABECDCCCC4C3E79
S11300A000000080BEABAAAAAA3E00000000BF0068
S11300B00000803F0000000000084178D3BB438764
S11300C0D1133D190E3CC3BD4282AD2B3E68EC8278
S11300D076BED98FE1A93E4C80EFFFBE01C4FF7FFD
S11300E03F000000000007634236B79BD8A71A39C7
S11300F0685618AEBAAB558C1D3CB7CC5763BD6D72
S1130100EDFD753EF6177231BF000000803F1124EB
S11301101FBECFEFD0E1DEBFCDBF11E0A0E0B1E064
S1130120E0EFFDE000E00BBF02C007900D92A230AB
S1130130B107D9F721E0A2E0B1E001C01D92AF31CF
S1130140B207E1F73ED152C65BCF10929B0088E123
S113015080939A0086E080939D001092980087E631
S113016080939900089590919B0095FFFCCF809314
S11301709C00089595B3907F892B85BB2FEF81EE6A
S113018094E0215080409040E1F700C000000895C1
S113019040E050E021C020910C012223B9F04F5FD0
S11301A05F4F20911601309117014217530771F4E4
S11301B020911A0130911B01820F931F9093130118
S11301C0809312019BBD8ABD40E050E08FE891E02E
S11301D00197F1F700C00000809112019091130182
S11301E0209108013091090182179307A1F608951F
S11301F0CF93DF93EC0180911201909113019BBD89
S11302008ABD82E0B7DF82E0B5DFD0930901C093F5
S113021008012091120130911301809108019091FD
S113022009012817390738F08FEF9FEF90931B01CE
S113023080931A0106C081E090E090931B018093A3
S11302401A01A6DFDF91CF910895CF93DF93EC01DC
S113025083E090DF87E893E197BD86BDDBBDCABD2F
S113026089E088DFDF91CF910895CF93DF93EC018C
S113027083E080DF87E893E197BD86BDDBBDCABD1F
S11302808DE078DFDF91CF910895CF92DF92EF92E6
S1130290FF9260910D0170910E0180E090E028D3EF
S11302A09B01AC0168E47BEB82E99AE488D220E00C
S11302B030EE42E955E41AD2D6D321ED3BE849E2C7
S11302C051E414D22DEC3CEC4CE45FE378D29B0176
S11302D0AC0160E070E080E89FE308D29B01AC01D0
S11302E060E070E080E291E461D46B017C0120E085
S11302F030E048EC53E4AED318168CF020E030E044
S113030048EC52E4C701B60156D288235CF0A70139
S11303109601C701B601EBD1BAD2CB0105C080E288
S113032093E002C088EC90E0FF90EF90DF90CF90D4
S113033008951F920F920FB60F9211240F900FBEC3
S11303400F901F9018951F920F920FB60F921124C1
S11303500BB60F922F933F934F935F936F937F93BB
S11303608F939F93AF93BF93EF93FF9380E3FBDE51
S1130370FF91EF91BF91AF919F918F917F916F9179
S11303805F914F913F912F910F900BBE0F900FBE35
S11303900F901F90189582E88FBD8BE18EBD87E882
S11303A093E197BD86BD08958FEF8ABB11BA87BBD1
S11303B084BB1092610012B8089585B38F7785BB12
S11303C00895F894F1DFE7DFC0DE71D119BE8FE044
S11303D080936A0078948FEF84BB15BA1092110150
S11303E0ECDF84E190E0909317018093160181E0A3
S11303F080930C0187E791E0FBDE8FE39CE9019792
S1130400F1F700C0000041DF30DF80B3837081303A
S113041031F0823091F780E293E017DFEECF609104
S11304200D0170910E0180E090E062D26B017C01BD
S113043020E030E048EC53E40DD318168CF020E0B3
S113044030E048EC52E4C701B601B5D188235CF032
S1130450A7019601C701B6014AD119D2CB0105C043
S113046080E293E002C088EC90E0FFDEC6CF80918A
S11304701C0190911D018538934018F481E080930C
S113048011010895809114019091150189309240D1
S113049018F010920C01089581E080930C010895E6
S11304A01F920F920FB60F9211240BB60F922F9337
S11304B03F934F935F936F937F938F939F93AF93E8
S11304C0BF93EF93FF93809100018430B1F028F43F
S11304D0813049F0823061F025C08630C9F090F057
S11304E08730D9F01FC089D082E0809300011AC000
S11304F0C0D084E08093000115C0ACD085E0809327
S1130500000110C0C5D0B3DF86E0809300010AC0AB
S113051083D087E08093000105C08DD0B3DF81E0F4
S11305208093000187B1909100019F708074892BA2
S113053087B980910D0190910E018536910520F0C7
S11305408BB38E7F8BBB03C08BB381608BBB8091DD
S1130550040190910501893C910520F08BB38D7FB6
S11305608BBB03C08BB382608BBB809118019091CD
S113057019018538934020F08BB38B7F8BBB03C06C
S11305808BB384608BBB80911101882321F08BB3E2
S1130590877F8BBB03C08BB388608BBB80910601C4
S11305A0909107018536910520F08BB38F7E8BBB2C
S11305B003C08BB380618BBB8091140190911501B2
S11305C08930924020F08BB38F7B8BBB03C08BB3FD
S11305D080648BBBFF91EF91BF91AF919F918F91FD
S11305E07F916F915F914F913F912F910F900BBE2F
S11305F00F900FBE0F901F90189586B1806486B936
S1130600349BFECF86B1806186B984B195B1909355
S11306100E0180930D01089586B1806486B9349BE0
S1130620FECF86B1806186B984B195B190930701FC
S113063080930601089586B1806486B9349BFECF09
S113064086B1806186B984B195B190931501809388
S11306501401089586B1806486B9349BFECF86B1B7
S1130660806186B984B195B1909319018093180182
S1130670089586B1806486B9349BFECF86B18061CB
S113068086B984B195B190930501809304010895CE
S113069086B1806486B9349BFECF86B1806186B909
S11306A084B195B190931D0180931C01089510921B
S11306B019011092180110920E0110920D0110925E
S11306C005011092040110920B0110920A0110927C
S11306D01D0110921C01109211011092150110922B
S11306E01401109207011092060108955058BB2777
S11306F0AA270ED075C166D130F06BD120F031F449
S11307009F3F11F41EF45BC10EF4E095E7FB51C169
S1130710E92F77D180F3BA17620773078407950727
S113072018F071F49EF58FC10EF4E0950B2EBA2FDC
S1130730A02D0B01B90190010C01CA01A0011124E3
S1130740FF27591B99F0593F50F4503E68F11A168F
S1130750F040A22F232F342F4427585FF3CF469520
S113076037952795A795F0405395C9F77EF41F1642
S1130770BA0B620B730B840BBAF09150A1F0FF0F0C
S1130780BB1F661F771F881FC2F70EC0BA0F621FF8
S1130790731F841F48F4879577956795B795F795E8
S11307A09E3F08F0B3CF9395880F08F09927EE0F7A
S11307B0979587950895D9D008F481E008950CD0D1
S11307C00FC107D140F0FED030F021F45F3F19F0A3
S11307D0F0C0511139C1F3C014D198F39923C9F36E
S11307E05523B1F3951B550BBB27AA276217730733
S11307F0840738F09F5F5F4F220F331F441FAA1FE7
S1130800A9F333D00E2E3AF0E0E830D091505040A6
S1130810E695001CCAF729D0FE2F27D0660F771F54
S1130820881FBB1F261737074807AB07B0E809F036
S1130830BB0B802DBF01FF2793585F4F2AF09E3FCB
S1130840510568F0B6C000C15F3FECF3983EDCF39D
S1130850869577956795B795F7959F5FC9F7880F44
S1130860911D9695879597F90895E1E0660F771F96
S1130870881FBB1F621773078407BA0720F0621B27
S1130880730B840BBA0BEE1F88F7E095089504D020
S11308906894B111D9C00895BCD088F09F5790F0E6
S11308A0B92F9927B751A0F0D1F0660F771F881F91
S11308B0991F1AF0BA95C9F712C0B13081F0C3D0AC
S11308C0B1E00895C0C0672F782F8827B85F39F04A
S11308D0B93FCCF3869577956795B395D9F73EF4F0
S11308E090958095709561957F4F8F4F9F4F089598
S11308F0E89409C097FB3EF49095809570956195B6
S11309007F4F8F4F9F4F9923A9F0F92F96E9BB276B
S11309109395F695879577956795B795F111F8CFE7
S1130920FAF4BB0F11F460FF1BC06F5F7F4F8F4F52
S11309309F4F16C0882311F096E911C0772321F048
S11309409EE8872F762F05C0662371F096E8862FE0
S113095070E060E02AF09A95660F771F881FDAF737
S1130960880F9695879597F90895990F0008550F64
S1130970AA0BE0E8FEEF16161706E807F907C0F021
S113098012161306E407F50798F0621B730B840B29
S1130990950B39F40A2661F0232B242B252B21F403
S11309A008950A2609F4A140A6958FEF811D811DA3
S11309B0089597F99F6780E870E060E008959FEFDD
S11309C080EC089500240A941616170618060906E2
S11309D0089500240A9412161306140605060895B1
S11309E0092E0394000C11F4882352F0BB0F40F439
S11309F0BF2B11F460FF04C06F5F7F4F8F4F9F4F79
S1130A00089557FD9058440F551F59F05F3F71F0FA
S1130A104795880F97FB991F61F09F3F79F0879561
S1130A200895121613061406551FF2CF4695F1DFEA
S1130A3008C0161617061806991FF1CF869571057A
S1130A40610508940895E894BB2766277727CB01AE
S1130A5097F908958ADF08F48FEF08950EF023C103
S1130A60AECF6894A6CFD5DFC8F39923D1F3C6F3EC
S1130A70DF93CF931F930F93FF92C92FDD27882312
S1130A802AF02197660F771F881FDAF720E030E0FD
S1130A9040E85FEB9FE3883920F0803E30F02196F8
S1130AA08F7725DEECE8F0E003C021DEE9EBF0E02F
S1130AB008D18B01BE01EC01FB2E6F5771097595AE
S1130AC0771F880B990B16DF28E132E741E35FE3D8
S1130AD016D0AF2D9801AE01FF900F911F91CF91C9
S1130AE0DF9116DE7DCF0BD07BCF6CDF28F071DF7A
S1130AF018F0952309F05DCF62CF1124A5CF81DFD3
S1130B00A0F3959FD1F3950F50E0551F629FF0011C
S1130B10729FBB27F00DB11D639FAA27F00DB11D75
S1130B20AA1F649F6627B00DA11D661F829F2227FE
S1130B30B00DA11D621F739FB00DA11D621F839F85
S1130B40A00D611D221F749F3327A00D611D231F5B
S1130B50849F600D211D822F762F6A2F11249F57A9
S1130B6050408AF0E1F088234AF0EE0FFF1FBB1FCC
S1130B70661F771F881F91505040A9F79E3F51056B
S1130B8070F017CF61CF5F3FECF3983EDCF38695AE
S1130B9077956795B795F795E7959F5FC1F7FE2B16
S1130BA0880F911D9695879597F90895FA01EE0F90
S1130BB0FF1F30962105310599F16115710561F426
S1130BC08038BFE39B0749F168949038810561F050
S1130BD08038BFEF9B0741F0992342F5FF3FE105C1
S1130BE03105210511F1E8940894E795D901AA2368
S1130BF029F4AB2FBE2FF85FD0F310C0FF5F70F461
S1130C00A695E0F7F73950F019F0FF3A38F49F77DA
S1130C109F930CD00F9007FC905808953EF0CFCED0
S1130C2060E070E080E89FE308954FE79F775F936B
S1130C304F933F932F9317DF2F913F914F915F91E4
S1130C4052DF05C019F40EF0B4CEFDCEB8CEE1DE0D
S1130C50C8F39638C0F707F80F92E8942BE33AEA02
S1130C6048EB5FE74EDF0F920F920F924DB75EB7DE
S1130C700F9289D0E6EEF0E024D04F915F91EF918E
S1130C80FF91E595EE1FFF1F49F0FE57E0684427EA
S1130C90EE0F441FFA95E1F74195550B40D00F90A4
S1130CA007FE34C008959F3F31F0915020F487959A
S1130CB077956795B795880F911D9695879597F9C0
S1130CC00895DF93CF931F930F93FF92EF92DF92D8
S1130CD07B018C01689405C0DA2EEF0110DFFE0160
S1130CE0E894A5912591359145915591AEF3EF0185
S1130CF00FDDFE019701A801DA9479F7DF90EF90F8
S1130D00FF900F911F91CF91DF9108959B01AC014A
S1130D1060E070E080E89FE352CD4BCEC4CF79DE33
S1130D20E8F39923D9F3940F511DBBF3915050402C
S1130D3094F059F0882332F0660F771F881F915082
S1130D405040C1F79E3F510544F7880F911D969579
S1130D50879597F908955F3FACF0983E9CF0BB27C8
S1130D60869577956795B79508F4B1609395C1F723
S1130D70BB0F58F711F460FFE8CF6F5F7F4F8F4FC1
S1130D809F4FE3CF61CEFA01DC01AA0FBB1F9B0189
S1130D90AC01BF5728F422273327442750781FC0BB
S1130DA0B75188F4AB2F0024469537952795011C3D
S1130DB0A395D2F3002069F0220F331F441FB3958B
S1130DC0DAF30DD093CC61307105A0E88A07B946F7
S1130DD030F49B01AC0166277727882790783096FA
S1130DE021F020833183428353830895F894FFCF05
S1050DF00100FC
S9030000FC
