:1000000045C0000060C000005EC000005CC0000091
:100010005AC0000058C0000056C0000054C0000084
:1000200052C0000050C000004EC000004CC0000094
:100030004AC0000048C0000046C0000044C00000A4
:10004000E6C0000040C000003EC000003CC0000010
:100050003AC0000038C0000036C0000034C00000C4
:1000600032C0000030C000002EC000002CC00000D4
:100070002AC0000028C0000026C0000024C00000E4
:1000800022C0000020C000001EC0000011241FBEBE
:10009000CFEFD0E1DEBFCDBF11E0A0E0B1E0EAECF0
:1000A000F5E000E00BBF02C007900D92A230B1074F
:1000B000D9F721E0A2E0B1E001C01D92AD32B20754
:1000C000E1F735D180C29CCF10929B0088E18093EC
:1000D0009A0086E080939D001092980087E68093B6
:1000E0009900089590919B0095FFFCCF80939C0010
:1000F000089580919B0088230CF087C080919C001C
:1001000080930401809102018230B1F08330B1F11B
:10011000813009F054C0809104018E3239F410927C
:10012000020180910401DEDF80E0089580910401E6
:1001300080538093050143C0809104018E3239F4CD
:100140001092020180910401CDDF80E00895E5E086
:10015000F1E0818192819C01220F331F880F991F4A
:10016000880F991F880F991F820F931F20910401F8
:10017000820F911DC0979283818321C080910401D9
:100180008E3239F41092020180910401ABDF81E0DC
:100190000895E5E0F1E0838194819C01220F331FF3
:1001A000880F991F880F991F880F991F820F931F1F
:1001B00020910401820F911DC097948383838091C5
:1001C0000401833231F41092050181E08093020131
:1001D00017C080910401813241F4109207011092FE
:1001E000060182E0809302010BC0809104018A32F3
:1001F00039F4109209011092080183E08093020102
:10020000809104016FDF80E0089580E008951F92DF
:100210000F920FB60F9211240BB60F922F933F93AC
:100220004F935F936F937F938F939F93AF93BF93FE
:10023000EF93FF93809100018430D9F028F481304E
:1002400051F0823079F02DC0803109F1803231F1E6
:10025000883039F515C0F6D080910001880F809361
:1002600000011FC0F4D080910001880F809300012D
:1002700018C0F7D080910001880F8093000111C051
:10028000EBD080910001880F809300010AC0F3D069
:1002900080910001880F8093000103C0E7D0109285
:1002A0000001FF91EF91BF91AF919F918F917F914D
:1002B0006F915F914F913F912F910F900BBE0F90D7
:1002C0000FBE0F901F90189595B3907F892B85BB1B
:1002D0008FE891E00197F1F700C000000895809148
:1002E0000501823099F028F4882341F0813051F0E3
:1002F00018C0833079F0843089F013C084E0809393
:1003000003010FC081E0809303010BC082E0809362
:10031000030107C083E08093030103C084E080935E
:10032000030180912A0190912B0183BD0895CCDEB9
:10033000E5E0F1E010828FEF9FEF92838183948359
:1003400083839ED0CCDFDDD0809101018430F9F031
:1003500028F4813049F0823081F0F6CF883079F18D
:10036000803109F452C0F0CF80912701823328F008
:1003700080910101880F80930101BBDE882321F366
:1003800090D080910101880F80930101DDCFF9D0D9
:1003900085B315BAD6D01092210185B3806885BB8C
:1003A0002FEF87EA91E6215080409040E1F700C0AE
:1003B000000080910101880F80930101C5CF8091D9
:1003C0002101813049F4109221019BD080910101DB
:1003D000880F80930101B8CF94D085B315BA1092DD
:1003E0001C0188E290E09093260180932501A9D01A
:1003F00085B3806885BB81E080931C0182D08091A9
:100400000101880F809301019FCF80910501813008
:1004100049F028F0823049F0833051F00CC08EE072
:1004200053DF0BC081E050DF08C085E04DDF05C021
:1004300089E04ADF02C08EE047DF51DF81E0809330
:10044000010182CF84B195B180931E01089584B1DA
:1004500095B180931901089584B195B180932401D9
:10046000089584B195B180932701089584B195B121
:1004700080931801089584B195B180932C0108955B
:100480001092270110921E011092180110921C0167
:1004900010922C0110922101109224011092190146
:1004A0000895089580E090E01CC0019640912501D8
:1004B000509126018417950771F48091280190913D
:1004C0002901280F391F30932301209322013BBDBE
:1004D0002ABD80E090E0EFE8F1E03197F1F700C04D
:1004E0000000209122013091230140911A01509186
:1004F0001B012417350721F040911D014111D5CF73
:10050000089582E890E090931B0180931A01209156
:1005100022013091230180911A0190911B0128172B
:10052000390738F08FEF9FEF9093290180932801CE
:1005300006C081E090E09093290180932801B2CF1A
:1005400008958CE692E090931B0180931A0120910C
:1005500022013091230180911A0190911B012817EB
:10056000390738F08FEF9FEF90932901809328018E
:1005700006C081E090E0909329018093280192CFFA
:10058000089580911F019091200190931B01809309
:100590001A01209122013091230180911A0190913A
:1005A0001B012817390738F08FEF9FEF909329012F
:1005B0008093280106C081E090E090932901809308
:0A05C000280170CF0895F894FFCFD2
:0205CA0001012D
:00000001FF
