S01700004763634170706C69636174696F6E312E737265635B
S113000045C0000060C000005EC000005CC000008D
S11300105AC0000058C0000056C0000054C0000080
S113002052C0000050C000004EC000004CC0000090
S11300304AC0000048C0000046C0000044C00000A0
S11300407FC0000040C000003EC000003CC0000073
S11300503AC0000039C0000036C0000034C00000BF
S113006032C0000030C000002EC000002CC00000D0
S11300702AC0000028C0000026C0000024C00000E0
S113008022C0000020C000001EC0000011241FBEBA
S1130090CFEFD0E1DEBFCDBF11E0A0E0B1E0E0E7FB
S11300A0F1E000E00BBF02C007900D92A030B10751
S11300B0D9F721E0A0E0B1E001C01D92A330B2075E
S11300C0E1F73DD053C09CCF1F920F920FB60F9211
S11300D011248F939F9384B195B1909302018093DF
S11300E001019F918F910F900FBE0F901F90189553
S11300F080E487B98FE886B9089586B1806486B9AB
S1130100089597B1987F8770892B87B9F6DF369960
S1130110FECF8FE39CE90197F1F700C000008091C6
S11301200101909102010895E3DF789484E0E9DF0E
S113013085E0E7DF86E0E5DF87E0E3DFF7CFF4DFA4
S11301401F920F920FB60F9211248F93809100018A
S1130150811103C085B315BA03C085B3806885BB1C
S11301608F910F900FBE0F901F901895F894FFCFAA
S9030000FC
